:020000040800F2
:100000000000032065080008E5070008E70700086E
:10001000E9070008EB070008ED07000800000000F2
:10002000000000000000000000000000EF070008D2
:10003000F107000800000000F3070008F5070008BA
:10004000B9080008B9080008B9080008B90800088C
:10005000B9080008B9080008B9080008B90800087C
:10006000B9080008B9080008B9080008B90800086C
:10007000B9080008B9080008B9080008B90800085C
:10008000B9080008B9080008B9080008B90800084C
:10009000B9080008B9080008B9080008B90800083C
:1000A000B9080008B9080008B9080008B90800082C
:1000B000B9080008B9080008B9080008B90800081C
:1000C000B9080008B9080008B9080008B90800080C
:1000D000B9080008B9080008B9080008B9080008FC
:1000E000B9080008B9080008B9080008B9080008EC
:1000F000B9080008B9080008B9080008B9080008DC
:10010000B9080008B9080008B9080008B9080008CB
:10011000B9080008B9080008B9080008B9080008BB
:10012000B9080008B9080008B9080008B9080008AB
:0C013000B9080008B9080008B908000868
:10013C0010B5054C237833B9044B13B10448AFF315
:10014C0000800123237010BD440400200000000037
:10015C008C25000808B5034B1BB103490348AFF3CA
:10016C00008008BD00000000480400208C25000819
:10017C0053B94AB9002908BF00281CBF4FF0FF3102
:10018C004FF0FF3000F06CB9ADF1080C6DE904CE06
:10019C0000F006F8DDF804E0DDE9022304B0704756
:1001AC002DE9F047089E0D4604468E46002B40F084
:1001BC0082808A42174646D9B2FA82F24AB1C2F11B
:1001CC00200105FA02F320FA01F1974041EA030EEF
:1001DC0094404FEA1748230CBEFBF8FCB9B208FB5D
:1001EC001CEE43EA0E430CFB01F098420AD9FB18B3
:1001FC000CF1FF3580F01681984240F21381ACF17E
:10020C00020C3B441B1AA4B2B3FBF8F008FB1033EE
:10021C0044EA034400FB01F1A14209D93C1900F165
:10022C00FF3380F00181A14240F2FE8002383C4451
:10023C00641A40EA0C4000211EB1D4400023C6E9E8
:10024C000043BDE8F08702B9FFDEB2FA82F2002A61
:10025C004FD1CB1B4FEA174E1FFA87F80121B3FB86
:10026C00FEFC250C0EFB1C3345EA034508FB0CF386
:10027C00AB4207D97D190CF1FF3002D2AB4200F230
:10028C00E7808446ED1AA3B2B5FBFEF00EFB1055C9
:10029C0043EA054408FB00F8A04507D93C1900F1D6
:1002AC00FF3302D2A04500F2D7801846A4EB080415
:1002BC0040EA0C40C0E78B4208D9002E00F0AF801A
:1002CC000021C6E900050846BDE8F087B3FA83F1C2
:1002DC0000294BD1AB4202D3824200F2B780841A80
:1002EC0065EB030301209E46002EAAD0C6E9004E02
:1002FC00A7E7C2F1200C01FA02F3974020FA0CF0A8
:10030C004FEA174E21FA0CFC1843BCFBFEF1050C0E
:10031C000EFB11CC1FFA87F845EA0C4501FB08F3DC
:10032C00AB4204FA02F409D97D1901F1FF3C80F0CB
:10033C008B80AB4240F2888002393D44EB1A85B287
:10034C00B3FBFEF00EFB103345EA034500FB08F34C
:10035C00AB4207D97D1900F1FF3C71D2AB426FD98A
:10036C0002383D44EB1A40EA014178E7C1F1200C18
:10037C008B4022FA0CF71F4320FA0CF405FA01F318
:10038C004FEA174E25FA0CF51C43230CB5FBFEF96E
:10039C001FFA87F80EFB195543EA054509FB08FAC5
:1003AC00AA4502FA01F200FA01F308D97D1909F104
:1003BC00FF3047D2AA4545D9A9F102093D44A5EB26
:1003CC000A05A4B2B5FBFEF00EFB105544EA054439
:1003DC0000FB08F8A04507D93C1900F1FF352DD2D8
:1003EC00A0452BD902383C4440EA0940A4EB080450
:1003FC00A0FB02894C45C6464D4619D316D05EB1BA
:10040C00B3EB0E0264EB050404FA0CFCCA404CEA94
:10041C000202CC40C6E900240021BDE8F087314639
:10042C0030460EE7AC46EDE6184601E74345E6D20A
:10043C00B8EB020E69EB07050138E0E72846D3E775
:10044C0060468FE78146BAE7614677E708464BE797
:10045C00ACF1020C3D4415E702383C4426E700BFE2
:10046C00704700BF30B58BB00024059406940794F8
:10047C00089409944FF0B043DA6C42F00402DA6449
:10048C00DA6C02F004020492049ADA6C42F0020272
:10049C00DA64DA6C02F002020392039ADA6C42F02C
:1004AC000102DA64DA6C02F001020292029ADA6C4E
:1004BC0042F00802DA64DB6C03F008030193019B41
:1004CC00104D22462321284600F06FFB1023059384
:1004DC000694079405A90C4800F09CFA2323059375
:1004EC00012306930794089405A9284600F092FA74
:1004FC00032305930694079405A9044800F08AFA8F
:10050C000BB030BD0004004800080048000C004847
:10051C0072B6FEE708B51648164B03604FF4E1338C
:10052C0043604FF0805383600023C36003610C224F
:10053C0042618361C36103624362836201F05DFEC9
:10054C0070B900210A4801F0D0FE58B900210848C2
:10055C0001F0F0FE40B9064801F0A8FE30B908BD24
:10056C00FFF7D6FFFFF7D4FFFFF7D2FFFFF7D0FF5F
:10057C00540700200038014008B50948094B0360B6
:10058C00082343600223836003610023436183617A
:10059C00C361036200F00EFB00B908BDFFF7B8FFA2
:1005AC00600400200068004010B5AEB04822002165
:1005BC001CA801F025FF0024159416941794189488
:1005CC0019941A941B945022214601A801F018FF8B
:1005DC0000F074FB4FF0B042D2F8903023F01803C7
:1005EC00C2F8903002F58062136823F4C06343F4C0
:1005FC0000731360136803F4C0630093009B2723FC
:10060C001C934FF480331D9301231E934FF480727F
:10061C001F9223934022209224946022259202223E
:10062C0027922893299418232A934FF400332B9361
:10063C004FF000532D934FF000732C931CA800F037
:10064C0041FC00282FD16F2315930323169300230D
:10065C0017931893199380221A921B93022115A8B1
:10066C0000F0C6FF08BB42F201130193182302935A
:10067C004FF4003303934FF0007304934FF0005387
:10068C0005934FF080730693002307934FF080621D
:10069C000E921393149301A801F0D5F938B901F017
:1006AC0061FB2EB010BDFFF733FFFFF731FFFFF7F3
:1006BC002FFF000008B500F023F9FFF775FFFFF7D7
:1006CC00D1FEFFF727FFFFF757FF002202210A4850
:1006DC0000F06BFA04E000220221074800F065FAF2
:1006EC000121064800F05AFA0128F4D10122022116
:1006FC00014800F05AFAF3E700040048000C0048E7
:10070C007047000000B589B0002303930493059350
:10071C00069307930268144B9A4202D009B05DF815
:10072C0004FB4FF0B0431A6E42F480421A661A6E04
:10073C0002F480420292029ADA6C42F00202DA640B
:10074C00DB6C03F002030193019BC0230393022390
:10075C00049301230593002306930723079303A90E
:10076C00024800F057F9D9E700380140000400486E
:10077C0010B588B000230393049305930693079355
:10078C000268144B9A4201D008B010BD4FF0B0442F
:10079C00E36C43F00103E364E36C03F001030293A5
:1007AC00029B4FF4C053039302230493002305933D
:1007BC0006930A23079303A94FF0904000F02AF9FF
:1007CC00A36D43F08063A365A36D03F08063019375
:1007DC00019BD9E700680040FEE7FEE7FEE7FEE775
:1007EC00FEE770477047704708B500F09FF808BDEA
:1007FC004FF0B0431A6842F001021A604FF4E02245
:10080C009A601968A2F1A262A2F205120A401A605B
:10081C00D3F8942022F00502C3F89420D3F8982042
:10082C0022F00102C3F89820044ADA601A611A68AF
:10083C0022F480221A6000229A6170470010042270
:10084C00D458C4500433C4188C42F9D37047036095
:10085C0004308842FBD370470C488546FFF7C8FF2D
:10086C000B480C490C4A0023FFF7EDFF0B480C49D1
:10087C000023FFF7EEFF0B480B490023FFF7E9FFBE
:10088C0001F09AFDFFF716FFFEE7000000000320C1
:10089C000800002044040020B02600084404002076
:1008AC000C0800200000032000000320FEE70000DD
:1008BC00114B1B780BB90120704710B5044600F0A2
:1008CC00F1FA0D4B1A784FF47A73B3FBF2F3B0FBD9
:1008DC00F3F000F089F868B90F2C01D901200AE077
:1008EC00002221464FF0FF3000F04AF8034B1C6009
:1008FC00002000E0012010BD0C00002010000020A2
:10090C0010B5094A136843F480731360032000F098
:10091C0025F80020FFF7CCFF10B10124204610BDB4
:10092C000446FFF7EDFEF9E700400058034B1B7837
:10093C00034A11680B441360704700BF0C00002081
:10094C00E4070020014B1868704700BFE407002043
:10095C00014B1868704700BF10000020074AD3688D
:10096C0023F4E0631B041B0C000200F4E06003435F
:10097C0043F0BF6343F40033D360704700ED00E0F5
:10098C0030B4174BDB68C3F30223C3F10704042C08
:10099C0028BF04241D1D062D18D9033B4FF0FF352D
:1009AC0005FA04F421EA0401994005FA03F322EA5A
:1009BC000303194300280BDB0901C9B200F16040A5
:1009CC0000F5614080F8001330BC70470023E5E768
:1009DC0000F00F000901C9B2024B1954F4E700BF33
:1009EC0000ED00E014ED00E00138B0F1807F0AD298
:1009FC00064B5860064AF02182F8231000209860BC
:100A0C0007221A6070470120704700BF10E000E019
:100A1C0000ED00E0F0B400235FE086685F00032582
:100A2C00BD4026EA0506CD68BD4035438560466865
:100A3C0026EA04064D68C5F300149C403443446018
:100A4C0059E0DD08083550F8257003F00704A600BE
:100A5C000F24B44027EA04070C69B4403C4340F827
:100A6C0025405CE0042400E00024B4403C43023503
:100A7C00474E46F82540474CD4F88050D44325EADD
:100A8C0002064F6817F4803F01D042EA0506414D3B
:100A9C00C5F88060D5F8845004EA05064F6817F451
:100AAC00003F01D042EA05063A4DC5F884602D6836
:100ABC0004EA05064F6817F4801F01D042EA0506C8
:100ACC00344D2E606D682C404E6816F4001F01D01A
:100ADC0042EA05042F4A546001330A6832FA03F4DF
:100AEC0054D001249C402240F6D04D6805F00305FB
:100AFC00013D012D91D94C6804F00304032C09D05D
:100B0C00C5685E000324B44025EA04058C68B44033
:100B1C002C43C4604C6804F00304022C91D005688B
:100B2C005E000324B44025EA04054C6804F0030479
:100B3C00B4402C4304604C6814F4403FCCD09D0866
:100B4C00AE1C134C54F8267003F00304A6000F24BB
:100B5C00B44027EA0407B0F1904F85D00E4CA04268
:100B6C000ED004F58064A0420CD004F58064A04241
:100B7C000AD004F58064A0423FF474AF072474E7F4
:100B8C00012472E7022470E703246EE7F0BC70477F
:100B9C000000014000080058000400480369194295
:100BAC0001D001207047002070470AB18161704765
:100BBC0081627047002868D0F0B587B0044690F881
:100BCC00A93223B3032384F8A932206801F0D7FBA0
:100BDC000023606883421FD25A1C02EB820104EB93
:100BEC00C1010120487002EB820104F8313003EBA3
:100BFC00830104EBC101CB8602EB820504EBC50536
:100C0C000020E8708863C8630864D3B2E1E780F819
:100C1C00A832FFF7ADFDD5E7002316E003EB830206
:100C2C0004EBC202002182F8691182F8683182F863
:100C3C006B11C2F87811C2F87C1103EB830204EB40
:100C4C00C202C2F880110133DBB29842E6D82546C5
:100C5C0055F8107B6E460FCD0FC62B683360231DE5
:100C6C000ECB384601F095FB002384F82430012389
:100C7C0084F8A932E369012B02D0002007B0F0BD43
:100C8C00204600F004F80020F8E7012070470346E6
:100C9C0002680121C0F8E812002083F8E002B2F8E3
:100CAC0054309BB20B43A2F85430B2F854309BB280
:100CBC0043F00203A2F8543070470000024A136854
:100CCC0043F480731360704700040058024B18689B
:100CDC0000F4C060704700BF00040058F0B58DB040
:100CEC0005460F462A4C94E80F000CAE06E90F009F
:100CFC0005AB04F1100207CA83E8070001AE1C34EF
:100D0C0094E80F0086E80F00B7F5007F1BD0002396
:100D1C00022B22D80CAA02EB830252F81C2CAA42FA
:100D2C0015D20133F4E70133032B0ED80CAA02EBD6
:100D3C00830252F8102CAA42F5D30CAA02EB8303BF
:100D4C0053F82C5C0AE00023EEE7002506E00CAA21
:100D5C0002EB830353F82C5C00E000250D4A13686A
:100D6C0023F007032B431360FFF7ECFD0446094BFC
:100D7C001B6803F00703AB4206D0FFF7E3FD001B33
:100D8C000228F4D9032000E000200DB0F0BD00BF14
:100D9C00A42500080040005810B5B02816D90E4BF9
:100DAC00DC6A4FF0B043D3F8083103F00F030B4A61
:100DBC0052F82300B4FBF0F4FFF788FF0146084813
:100DCC00A0FB0430800CFFF789FF10BDC0F30310AB
:100DDC00014B53F82040E4E730260008D0250008EA
:100DEC0083DE1B434FF0B0439B6813F00C030DD113
:100DFC004FF0B0431B6803F0F003B02B04D81B0971
:100E0C00254A52F823007047B023F8E7042B3ED054
:100E1C00082B10D04FF0B043DB6803F00303022B18
:100E2C001FD0032B0FD14FF0B0431B6813F4801F5E
:100E3C002BD11A4B16E04FF0B0431B6813F4801FF4
:100E4C0027D0174870474FF0B0431B6803F0F003EE
:100E5C00B02B04D81B09104A52F8233002E0B023FF
:100E6C00F8E70F4B4FF0B042D068C0F3062000FB00
:100E7C0003F0D368C3F302130133B0FBF3F0D36870
:100E8C005B0F0133B0FBF3F07047054BEAE7044806
:100E9C0070470248704700BF302600080048E80140
:100EAC000024F40008B5FFF79DFF4FF0B0439B689A
:100EBC00C3F30313024A52F82330B0FBF3F008BD1E
:100ECC00D0250008002800F07E8338B5044603685E
:100EDC0013F0200F7FD04FF0B0429368D26802F02D
:100EEC00030213F00C031DD00C2B19D0E369002B5B
:100EFC0000F09E804FF0B042136843F00103136082
:100F0C00FFF720FD05464FF0B0431B6813F0020FAE
:100F1C0052D1FFF717FD401B0228F4D903205DE3E3
:100F2C00012AE3D14FF0B0431B6813F0020F03D03A
:100F3C00E369002B00F04983606A4FF0B0431B68F3
:100F4C0003F0F003B02B20D8984220D9FFF724FFF0
:100F5C00002840F03C83636A4FF0B042116821F0E6
:100F6C00F0010B431360216A536823F47F4343EA77
:100F7C0001235360FFF796FFC44B1860C44B1868ED
:100F8C00FFF796FC38B3012028E3B023DCE74FF0E1
:100F9C00B042136823F0F00318431060216A5368C1
:100FAC0023F47F4343EA01235360606AFFF7F4FEA6
:100FBC000028DFD0012011E3636A4FF0B0421168C2
:100FCC0021F0F0010B431360216A536823F47F4333
:100FDC0043EA01235360236813F0010F4AD04FF00A
:100FEC00B042936803F00C03D26802F00302082BA2
:100FFC0036D00C2B32D06368B3F5803F63D04FF002
:10100C00B042136823F4803313606368002B61D003
:10101C00FFF798FC05464FF0B0431B6813F4003FF4
:10102C0028D1FFF78FFC401B6428F4D90320D5E2AC
:10103C004FF0B042136823F001031360FFF782FCFA
:10104C0005464FF0B0431B6813F0020FC3D0FFF7F7
:10105C0079FC401B0228F4D90320BFE2032ACAD131
:10106C004FF0B0431B6813F4003F03D06368002BB0
:10107C0000F0AF82236813F0020F50D04FF0B04253
:10108C00936803F00C03D26802F00302042B33D0F4
:10109C000C2B2FD0E368002B77D04FF0B0421368A5
:1010AC0043F480731360FFF74DFC05464FF0B043DB
:1010BC001B6813F4806F5ED1FFF744FC401B0228C1
:1010CC00F4D903208AE24FF0B042136843F4803322
:1010DC0013609AE7FFF736FC05464FF0B0431B68E8
:1010EC0013F4003FC6D0FFF72DFC401B6428F4D945
:1010FC00032073E2022ACDD14FF0B0431B6813F4E6
:10110C00806F03D0E368002B00F0658221694FF0FB
:10111C00B042536823F0FE4343EA016353602368F3
:10112C0013F0180F00F0E8806269002A00F0B2801A
:10113C0013F0100F7AD04FF0B043D3F8943013F073
:10114C00020F38D14FF0B042D2F8943043F0010383
:10115C00C2F89430FFF7F6FB05464FF0B043D3F8D6
:10116C00943013F0020F26D1FFF7ECFB401B022842
:10117C00F3D9032032E221694FF0B042536823F0D7
:10118C00FE4343EA01635360C9E74FF0B042136872
:10119C0023F480731360FFF7D5FB05464FF0B04383
:1011AC001B6813F4806FBAD0FFF7CCFB401B0228EE
:1011BC00F4D9032012E24FF0B042D2F8943043F04D
:1011CC000403C2F89430FFF7BDFB05464FF0B04363
:1011DC00D3F8943013F0080F06D1FFF7B3FB401B84
:1011EC000328F3D90320F9E1A1694FF0B042D2F8FA
:1011FC00943023F4706343EA0123C2F89430D2F89C
:10120C00943023F00103C2F89430FFF79BFB0546A2
:10121C004FF0B043D3F8943013F0020F6CD0FFF7BB
:10122C0091FB401B0228F3D90320D7E14FF0B042C9
:10123C00D2F8943043F00103C2F89430FFF782FBEC
:10124C0005464FF0B043D3F8943013F0020F06D19B
:10125C00FFF778FB401B0228F3D90320BEE14FF0C7
:10126C00B042D2F8943023F00403C2F894304FF01B
:10127C00B043D3F8943013F0080F3DD0FFF762FB66
:10128C00401B0328F3D90320A8E100BF080000206D
:10129C00100000204FF0B042D2F8943023F0040339
:1012AC00C2F89430FFF74EFB05464FF0B043D3F82D
:1012BC00943013F0080F18D14FF0B042D2F894309C
:1012CC0023F00103C2F89430FFF73CFB05464FF0C6
:1012DC00B043D3F8943013F0020F0DD0FFF732FB6C
:1012EC00401B0228F3D9032078E1FFF72BFB401BAE
:1012FC000328DAD9032071E1236813F0040F68D0B6
:10130C00B94B1B6813F4807F27D0A368012B35D011
:10131C00052B3CD04FF0B043D3F8902022F00102C3
:10132C00C3F89020D3F8902022F00402C3F8902048
:10133C00A368DBB3FFF706FB05464FF0B043D3F8C9
:10134C00903013F0020F44D1FFF7FCFA401B41F22E
:10135C0088339842F1D9032040E1FFF7AFFCFFF747
:10136C00F1FA0546A04B1B6813F4807FCDD1FFF733
:10137C00E9FA401B0228F5D903202FE14FF0B042C7
:10138C00D2F8903043F00103C2F89030D0E74FF020
:10139C00B043D3F8902042F00402C3F89020D3F865
:1013AC00902042F00102C3F89020C1E7FFF7CAFA7F
:1013BC0005464FF0B043D3F8903013F0020F08D02D
:1013CC00FFF7C0FA401B41F288339842F1D9032051
:1013DC0004E1236813F0400F33D0A36AC3B14FF07C
:1013EC00B042D2F8983043F00103C2F89830FFF7BE
:1013FC00A9FA05464FF0B043D3F8983013F0020F1A
:10140C001FD1FFF79FFA401B0228F3D90320E5E018
:10141C004FF0B042D2F8983023F00103C2F8983064
:10142C00FFF790FA05464FF0B043D3F8983013F01D
:10143C00020F06D0FFF786FA401B0228F3D90320CF
:10144C00CCE0E36A002B00F0C8804FF0B04291680A
:10145C0001F00C01D268022B23D00C2900F0C180C2
:10146C004FF0B0431A6822F080721A60DA6822F0EA
:10147C000302DA60DA6822F0885222F48032DA60F1
:10148C00FFF760FA04464FF0B0431B6813F0007F7F
:10149C0000F09780FFF756FA001B0228F3D90320BF
:1014AC009CE002F00303206B83420AD00C2900F06D
:1014BC0096804FF0B0431B6813F0806F22D0012050
:1014CC008CE002F07003606B8342EFD1C2F3062311
:1014DC00A06B8342EAD102F47813E06B8342E5D12E
:1014EC0002F06063206C8342E0D102F06042636CD6
:1014FC009A42DBD14FF0B0431B6813F0007F44D00D
:10150C0000206BE04FF0B042136823F0807313603F
:10151C00FFF718FA05464FF0B0431B6813F0007F35
:10152C0006D0FFF70FFA401B0228F4D9032055E030
:10153C004FF0B042D3682D491940236B606B0343C5
:10154C00A06B43EA0023E06B0343206C0343606C05
:10155C0003430B43D360136843F080731360D36869
:10156C0043F08053D360FFF7EDF904464FF0B043DE
:10157C001B6813F0007F06D1FFF7E4F9001B02286B
:10158C00F4D903202AE0002028E04FF0B0431A6879
:10159C0042F080721A60DA6842F08052DA60FFF72B
:1015AC00D1F904464FF0B0431B6813F0007F06D10D
:1015BC00FFF7C8F9031B022BF4D903200EE000201F
:1015CC000CE000200AE001207047012006E0012019
:1015DC0004E0012002E0012000E0002038BD0120E1
:1015EC00FCE70120FAE700BF000400588C80C11111
:1015FC00002800F0278170B50C460546934B1B68FC
:10160C0003F007038B422DD32B6813F0020F3FD14D
:10161C002B6813F0200F53D12B6813F0400F6AD1B5
:10162C002B6813F0040F40F083802B6813F0080F25
:10163C0040F097802B6813F0010F00F0DE806B6890
:10164C00022B00F0A880032B00F0AD80002B40F0A3
:10165C00B2804FF0B042126812F0020F40F0B1802D
:10166C000120EEE0794A136823F007030B43136063
:10167C00FFF768F90646754B1B6803F00703A34296
:10168C00C2D0FFF75FF9801B0228F4D90320D8E001
:10169C00AB684FF0B0418A6822F0F00213438B60C4
:1016AC00FFF750F906464FF0B0439B6813F4803FA8
:1016BC00AED1FFF747F9801B0228F4D90320C0E014
:1016CC006B694FF0B041D1F8082122F0F0021343BE
:1016DC00C1F80831FFF736F906464FF0B043D3F89E
:1016EC00083113F4003F97D1FFF72CF9801B022827
:1016FC00F3D90320A5E0A9694FF0B042D2F8083124
:10170C0023F00F0343EA1113C2F80831FFF71AF95B
:10171C0006464FF0B043D3F8083113F4803F7FF402
:10172C007FAFFFF70FF9801B0228F2D9032088E066
:10173C00EB684FF0B0418A6822F4E06213438B608F
:10174C00FFF700F906464FF0B0439B6813F4003FD7
:10175C007FF46BAFFFF7F6F8801B0228F3D9032058
:10176C006FE029694FF0B042936823F4605343EA69
:10177C00C1039360FFF7E6F806464FF0B0439B6851
:10178C0013F4802F7FF456AFFFF7DCF8801B022890
:10179C00F3D9032055E04FF0B042126812F4003F29
:1017AC000FD101204DE04FF0B042126812F0007FD3
:1017BC0007D1012045E04FF0B042126812F4806F5F
:1017CC0042D04FF0B0418A6822F0030213438B6081
:1017DC00FFF7B8F806464FF0B0439B6803F00C03D4
:1017EC006A68B3EB820F08D0FFF7ACF8801B41F2AC
:1017FC0088339842EFD9032023E0144B1B6803F085
:10180C000703A34215D9114A136823F00703234396
:10181C001360FFF797F805460C4B1B6803F00703A2
:10182C00A34206D0FFF78EF8401B0228F4D9032000
:10183C0007E0FFF737FB064B1860FFF789F8FFF757
:10184C0037F870BD012070470120FAE700400058BE
:10185C000800002008B5FFF725FB4FF0B0439B684C
:10186C00C3F30223034A52F8233003F01F03D8407A
:10187C0008BD00BF1026000808B5FFF713FB4FF09A
:10188C00B0439B68C3F3C223034A52F8233003F0DE
:10189C001F03D84008BD00BF1026000870B50546D0
:1018AC004FF0B042136823F080631360FFF74AF8DF
:1018BC0004464FF0B0431B6813F0006F06D0FFF7DF
:1018CC0041F8001B0228F4D9032400E000240CB1D9
:1018DC00204670BD4FF0B0431A6922F4FE422968CD
:1018EC0042EA01221A611A6922F4781269680A43E1
:1018FC001A611A6842F080621A60FFF723F80646F4
:10190C004FF0B0431B6813F0006F05D1FFF71AF8C6
:10191C00801B0228F4D90324002CD9D14FF0B042FB
:10192C00136929690B431361D2E770B505464FF073
:10193C00B042136823F080631360FFF703F804468A
:10194C004FF0B0431B6813F0006F06D0FEF7FAFFA0
:10195C00001B0228F4D9032400E000240CB120461B
:10196C0070BD4FF0B0431A6922F4FE42296842EA76
:10197C0001221A611A6922F06062A9680A431A618D
:10198C001A6842F080621A60FEF7DCFF06464FF0E0
:10199C00B0431B6813F0006F05D1FEF7D3FF801B1B
:1019AC000228F4D90324002CD9D14FF0B04213698A
:1019BC0029690B431361D2E770B505464FF0B0426D
:1019CC00136823F080631360FEF7BCFF04464FF0EE
:1019DC00B0431B6813F0006F06D0FEF7B3FF001B7B
:1019EC000228F4D9032400E000240CB1204670BD79
:1019FC004FF0B0431A6922F4FE42296842EA0122F0
:101A0C001A611A6922F06042E9680A431A611A687D
:101A1C0042F080621A60FEF795FF06464FF0B04325
:101A2C001B6813F0006F05D1FEF78CFF801B02289A
:101A3C00F4D90324002CD9D14FF0B0421369296991
:101A4C000B431361D2E770B50446036813F0400FE3
:101A5C002FD0036BB3F5800F21D00AD833B90430E3
:101A6C00FFF71CFF064658B1054624E001252E461B
:101A7C0021E0B3F5000F1AD0B3F5400F0CD10026BE
:101A8C00236B4FF0B041D1F8882022F4400213436D
:101A9C00C1F8883000250EE001252E460BE04FF0F2
:101AAC00B042D36843F48033D3600026E8E70026C5
:101ABC00E6E700252E46236813F4006F0AD04FF09A
:101ACC00B043D3F8905005F44075236CAB4240F012
:101ADC00D5803546236813F0010F09D0A3694FF068
:101AEC00B041D1F8882022F003021343C1F88830AA
:101AFC00236813F0020F09D0E3694FF0B041D1F81D
:101B0C00882022F440621343C1F88830236813F014
:101B1C00100F0CD0A06A4FF0B041D1F88830020CF5
:101B2C00120423EA020343EA0043C1F88830236815
:101B3C0013F0200F0CD0E06A4FF0B041D1F8883090
:101B4C00020C120423EA020343EA0043C1F8883072
:101B5C00236813F0040F0FD0236A4FF0B040D0F875
:101B6C008820190901F47F2122EA01021B0103F4E8
:101B7C007F231343C0F88830236813F0080F0FD06D
:101B8C00636A4FF0B040D0F88820190901F47F2126
:101B9C0022EA01021B0103F47F231343C0F88830AF
:101BAC00236813F4807F13D0636B4FF0B041D1F8EE
:101BBC00882022F040621343C1F88830636BB3F184
:101BCC00006F00F09C80636BB3F1806F00F09C8021
:101BDC00236813F4007F17D0A36BB3F1804F05D0AB
:101BEC00B3F1004F02D0002B40F096804FF0B04183
:101BFC00D1F8882022F040421343C1F88830A36BFF
:101C0C00B3F1C05F00F09A80236813F4806F13D097
:101C1C00E36B4FF0B041D1F8882022F040521343CF
:101C2C00C1F88830E36BB3F1005F00F08E80E36B9A
:101C3C00B3F1805F00F08E80236813F4805F09D0CD
:101C4C00636C4FF0B041D1F8942022F4404213431E
:101C5C00C1F89430236813F4005F0DD0E26C4FF0A0
:101C6C00B043596A21F030010A435A62A26C596A96
:101C7C0021F003010A435A62284670BDFFF71EF893
:101C8C005DB9236C4FF0B041D1F8902022F4407232
:101C9C001343C1F8903035461CE74FF0B043D3F8EE
:101CAC009020D3F8901041F48031C3F89010D3F801
:101CBC00901021F48031C3F8901022F44072216C02
:101CCC000A43C3F89020D3F8903013F0010F12D0D0
:101CDC00FEF738FE05464FF0B043D3F8903013F0C2
:101CEC00020F0AD1FEF72EFE401B41F288339842B8
:101CFC00F1D90325EEE63546ECE63546EAE6CB6847
:101D0C0043F08073CB605EE7201DFFF70EFE0028CA
:101D1C003FF45EAF05465BE723F080534FF0B042D3
:101D2C00D2F8881021F04041C2F88810D2F88810FF
:101D3C0021F040610B43C2F8883060E74FF0B042AD
:101D4C00D36843F08073D3605EE7CB6843F4803391
:101D5C00CB606CE7201DFFF72FFE00283FF46CAF23
:101D6C00054669E74FF0B042136843F00403136073
:101D7C00704700002DE9F041044601688368026950
:101D8C00134342691343C269134308688F4A0240E4
:101D9C0013430B602268536823F44053E1680B43F0
:101DAC005360A16922688A4B9A4201D0236A194375
:101DBC00936823F06E4323F430630B4393602268E3
:101DCC00D36A23F00F03616A0B43D3622268814B01
:101DDC009A4219D07E4B9A422AD010237C498A42CF
:101DEC0045D0E069B0F5004F00F08280013B072B35
:101DFC0000F2E680DFE813F0AC00AA00E400CE00AD
:101E0C00E400E400E400D1004FF0B043D3F8883094
:101E1C0003F00303032B09D8DFE803F002041F06C9
:101E2C000123DBE70423D9E70823D7E71023D5E701
:101E3C004FF0B043D3F8883003F44063B3F5006F30
:101E4C000DD005D86BB1B3F5806F0CD10423C5E769
:101E5C00B3F5406F09D10823C0E70223BEE7022384
:101E6C00BCE70023BAE71023B8E71023B6E7082B2A
:101E7C0000F29680DFE803F008943A943794949437
:101E8C0005004FF4004004E0FFF7E4FC002800F0EC
:101E9C008980626A504B33F81220B0FBF2F365680C
:101EAC0005EB450199427FD8B3EB053F7ED84FF047
:101EBC00000892B200234146FEF75AF90F0247EA96
:101ECC001067060268082A464346301847F100019D
:101EDC00FEF74EF9A0F54072404B9A4268D8236841
:101EEC00D86040464CE0FEF77DFFCFE73C48D0E79A
:101EFC00013B072B5ED8DFE803F006045D265D5D31
:101F0C005D0A374803E0FFF7B7FC002854D0626A3B
:101F1C00314B33F81230B0FBF3F06268530803EB2B
:101F2C004000B0FBF2F080B2A0F110024FF6EF735C
:101F3C009A4243D820F00F03C0F3420018432368A1
:101F4C00D86000201CE0FEF74DFFDEE7244802E0DD
:101F5C00FFF792FCB0B3626A1F4B33F81230B0FB40
:101F6C00F3F0636800EB5300B0FBF3F080B2A0F128
:101F7C0010024FF6EF739A4226D82368D8600020DF
:101F8C000123A4F86A30A4F8683000232367636740
:101F9C00BDE8F081FEF726FFDCE74FF40040DAE7FE
:101FAC000120EDE70020EBE70120E9E70120E7E75E
:101FBC000120E5E70120E3E70020E1E70120DFE76E
:101FCC000120DDE70020DBE70120D9E7F369FFCF33
:101FDC00008000400038014070260008FFFC0F0014
:101FEC000024F400836A13F0010F06D002685368D2
:101FFC0023F40033C16A0B435360836A13F0020F5E
:10200C0006D00268536823F48033016B0B43536092
:10201C00836A13F0040F06D00268536823F48023FC
:10202C00416B0B435360836A13F0080F06D00268B0
:10203C00536823F40043816B0B435360836A13F0A2
:10204C00100F06D00268936823F48053C16B0B43C6
:10205C009360836A13F0200F06D00268936823F410
:10206C000053016C0B439360836A13F0400F0AD04A
:10207C000268536823F48013416C0B435360436C28
:10208C00B3F5801F0BD0836A13F0800F06D0026863
:10209C00536823F40023C16C0B43536070470268F0
:1020AC00536823F4C003816C0B435360EBE72DE9B9
:1020BC00F84305460F4616469946DDF820802C68F5
:1020CC00E46937EA04030CBF01240024B44257D15D
:1020DC00B8F1FF3FF3D0FEF735FCA0EB090040450B
:1020EC002FD8B8F1000F2CD02B681A6812F0040FFF
:1020FC00E5D0DA6912F4006FE1D04FF400621A6295
:10210C002A6852E8003F23F4D07342E800310029DA
:10211C00F6D12A6802F1080353E8003F23F00103CB
:10212C00083242E800310029F3D12023C5F884306D
:10213C00C5F88830C5F88C30002385F88030032032
:10214C001FE02A6852E8003F23F4D07342E80031C4
:10215C000029F6D12A6802F1080353E8003F23F066
:10216C000103083242E800310029F3D12023C5F8DD
:10217C008430C5F88830002385F88030032000E0D7
:10218C000020BDE8F88330B583B004460023C0F8C6
:10219C008C30FEF7D7FB054623681B6813F0080F3D
:1021AC000FD123681B6813F0040F18D12023C4F837
:1021BC008430C4F888300020E06684F8800003B0D6
:1021CC0030BD6FF07E430093034600224FF40011A4
:1021DC002046FFF76CFF0028E3D00320EFE76FF0F9
:1021EC007E4300932B4600224FF480012046FFF7DC
:1021FC005EFF0028DAD00320E1E778B310B504467F
:10220C00D0F884300BB32423C4F8843022681368CC
:10221C0023F0010313602046FFF7ACFD012813D017
:10222C00A36ABBB92268536823F4904353602268B5
:10223C00936823F02A0393602268136843F0010328
:10224C0013602046FFF79FFF10BD80F88030FEF72B
:10225C0059FAD8E72046FFF7C5FEE3E7012070479F
:10226C00436E2BB90123A0F86A30A0F86830704790
:10227C0030B403689A68C2F342629968490F094DF9
:10228C006B5CDB00084C615C93FBF1F3A0F86A30EB
:10229C00AB5CDB00A25C93FBF2F3A0F8683030BCC3
:1022AC00704700BF902600088826000890F8803000
:1022BC00012B18D0012380F880302423C0F88430FF
:1022CC0003681A68196821F00101196022F00052A4
:1022DC000023436601680A602022C0F8842080F83D
:1022EC008030184670470220704738B590F880301F
:1022FC00012B1DD00446012380F880302423C0F824
:10230C00843003681D681A6822F001021A600268A2
:10231C00936823F0604319439160FFF7A1FF236892
:10232C001D602023C4F88430002084F8800038BD60
:10233C000220FCE738B590F88030012B1DD0044604
:10234C00012380F880302423C0F8843003681D6892
:10235C001A6822F001021A600268936823F0606325
:10236C0019439160FFF77CFF23681D602023C4F89C
:10237C008430002084F8800038BD0220FCE7B0F8DF
:10238C00403023F47E535B045B0CA0F840300020FB
:10239C00704784B010B4044602A880E80E000123F4
:1023AC00A4F840300020A4F84000A4F84400A4F89D
:1023BC00500010BC04B0704770B50D4E0D4D761B1F
:1023CC00B61006D0002455F8043B01349847A642B9
:1023DC00F9D1094E094D761B00F0D2F8B61006D093
:1023EC00002455F8043B01349847A642F9D170BD3E
:1023FC00A4260008A4260008AC260008A426000881
:10240C00F0B4860746D0541E002A3CD0CAB203460C
:10241C0001E0013C37D303F8012B9D07F9D1032CC4
:10242C002AD9CDB245EA05250F2C45EA054534D904
:10243C00A4F1100222F00F0C03F1200716096744D7
:10244C0003F1100242E9045542E902551032BA4236
:10245C00F8D1721C14F00C0F03EB021204F00F06EF
:10246C0013D0331F23F003030433134442F8045BEB
:10247C009342FBD106F003042CB1CAB21C4403F8FE
:10248C00012B9C42FBD1F0BC704734461346002C08
:10249C00F3D1F8E714460346C1E71A462646E0E7AF
:1024AC00024B13B1024800F005B870470000000061
:1024BC00CD240008002301461A46184600F01AB82D
:1024CC0038B5084B084D5B1B9C1007D0043B1D44D2
:1024DC00013C55F804399847002CF9D1BDE8384037
:1024EC0000F054B8B0260008AC260008704700BFB6
:1024FC00704700BF2DE9F047DFF880A00646DAF8F8
:10250C00000098460F469146FFF7F0FF1A4B1B68E8
:10251C00D3F8484124B365681F2D26DC5EB9AB1C8B
:10252C000135DAF80000656044F82370FFF7E0FF2E
:10253C000020BDE8F08704EB85030121C3F88890E7
:10254C00D4F88821A9400A43022EC4F88821C3F884
:10255C000881E4D1D4F88C311943C4F88C11DEE72E
:10256C0003F5A674C3F84841D5E7DAF80000FFF785
:10257C00BFFF4FF0FF30DCE7982600084004002036
:10258C00F8B500BFF8BC08BC9E467047F8B500BF54
:08259C00F8BC08BC9E46704724
:1025A400120000002400000036000000400000007B
:1025B400060000000C0000001000000000000000F5
:1025C4000100000002000000030000000100000000
:1025D40003000000050000000100000001000000ED
:1025E400060000000A0000002000000002000000B5
:1025F400040000000800000010000000400000007B
:102604008000000000010000000200000000000043
:1026140000000000000000000000000001000000B5
:10262400020000000300000004000000A086010076
:10263400400D0300801A060000350C0040420F00D4
:1026440080841E0000093D0000127A000024F4007A
:1026540000366E010048E801006CDC020000000056
:102664000000000000000000000000000100020063
:102674000400060008000A000C00100020004000BE
:1026840080000001080402040801010101010103A2
:082694000701000018000020FE
:08269C0010DBFF7F01000000CC
:0826A400AD24000861010008EB
:0426AC003D010008E4
:1026B00000093D00010000001000000000000000C3
:1026C00000000000040300206C030020D40300205D
:1026D00000000000000000000000000000000000FA
:1026E00000000000000000000000000000000000EA
:1026F00000000000000000000000000000000000DA
:1027000000000000000000000000000000000000C9
:1027100000000000000000000000000000000000B9
:1027200000000000000000000000000000000000A9
:102730000000000000000000000000000000000099
:102740000000000000000000000000000000000089
:102750000000000000000000000000000000000079
:102760000000000000000000010000000000000068
:102770000E33CDAB34126DE6ECDE05000B0000002D
:102780000000000000000000000000000000000049
:102790000000000000000000000000000000000039
:1027A0000000000000000000000000000000000029
:1027B0000000000000000000000000000000000019
:0C2AE0000000000000000000E8070020DB
:040000050800086582
:00000001FF
