:020000040800F2
:100000000000032065150008291400082B140008BF
:100010002D1400082F1400083114000800000000FF
:100020000000000000000000000000003314000881
:1000300035140008000000003714000839140008C7
:10004000B9150008B9150008B9150008B915000858
:10005000B9150008B9150008B9150008B915000848
:10006000B9150008B9150008B9150008B915000838
:10007000B9150008B9150008B9150008B915000828
:10008000B9150008B9150008B9150008B915000818
:10009000B9150008B9150008B9150008B915000808
:1000A000B9150008B9150008B9150008B9150008F8
:1000B000B9150008B9150008B9150008B9150008E8
:1000C000B9150008B9150008B9150008B9150008D8
:1000D00041140008B9150008B9150008B915000841
:1000E000B9150008B9150008B9150008B9150008B8
:1000F000B9150008B9150008B9150008B9150008A8
:10010000B9150008B9150008B9150008B915000897
:10011000B9150008B9150008B9150008B915000887
:10012000B9150008B915000851140008B9150008E0
:0C013000B9150008B9150008B915000841
:1001400010B5054C237833B9044B13B10448AFF311
:1001500000800123237010BDC009002000000000B2
:100160009485000808B5034B1BB103490348AFF35E
:10017000008008BD00000000C4090020948500082C
:1001800053B94AB9002908BF00281CBF4FF0FF31FE
:100190004FF0FF3000F06CB9ADF1080C6DE904CE02
:1001A00000F006F8DDF804E0DDE9022304B0704752
:1001B0002DE9F047089E0D4604468E46002B40F080
:1001C00082808A42174646D9B2FA82F24AB1C2F117
:1001D000200105FA02F320FA01F1974041EA030EEB
:1001E00094404FEA1748230CBEFBF8FCB9B208FB59
:1001F0001CEE43EA0E430CFB01F098420AD9FB18AF
:100200000CF1FF3580F01681984240F21381ACF179
:10021000020C3B441B1AA4B2B3FBF8F008FB1033EA
:1002200044EA034400FB01F1A14209D93C1900F161
:10023000FF3380F00181A14240F2FE8002383C444D
:10024000641A40EA0C4000211EB1D4400023C6E9E4
:100250000043BDE8F08702B9FFDEB2FA82F2002A5D
:100260004FD1CB1B4FEA174E1FFA87F80121B3FB82
:10027000FEFC250C0EFB1C3345EA034508FB0CF382
:10028000AB4207D97D190CF1FF3002D2AB4200F22C
:10029000E7808446ED1AA3B2B5FBFEF00EFB1055C5
:1002A00043EA054408FB00F8A04507D93C1900F1D2
:1002B000FF3302D2A04500F2D7801846A4EB080411
:1002C00040EA0C40C0E78B4208D9002E00F0AF8016
:1002D0000021C6E900050846BDE8F087B3FA83F1BE
:1002E00000294BD1AB4202D3824200F2B780841A7C
:1002F00065EB030301209E46002EAAD0C6E9004EFE
:10030000A7E7C2F1200C01FA02F3974020FA0CF0A3
:100310004FEA174E21FA0CFC1843BCFBFEF1050C0A
:100320000EFB11CC1FFA87F845EA0C4501FB08F3D8
:10033000AB4204FA02F409D97D1901F1FF3C80F0C7
:100340008B80AB4240F2888002393D44EB1A85B283
:10035000B3FBFEF00EFB103345EA034500FB08F348
:10036000AB4207D97D1900F1FF3C71D2AB426FD986
:1003700002383D44EB1A40EA014178E7C1F1200C14
:100380008B4022FA0CF71F4320FA0CF405FA01F314
:100390004FEA174E25FA0CF51C43230CB5FBFEF96A
:1003A0001FFA87F80EFB195543EA054509FB08FAC1
:1003B000AA4502FA01F200FA01F308D97D1909F100
:1003C000FF3047D2AA4545D9A9F102093D44A5EB22
:1003D0000A05A4B2B5FBFEF00EFB105544EA054435
:1003E00000FB08F8A04507D93C1900F1FF352DD2D4
:1003F000A0452BD902383C4440EA0940A4EB08044C
:10040000A0FB02894C45C6464D4619D316D05EB1B5
:10041000B3EB0E0264EB050404FA0CFCCA404CEA90
:100420000202CC40C6E900240021BDE8F087314635
:1004300030460EE7AC46EDE6184601E74345E6D206
:10044000B8EB020E69EB07050138E0E72846D3E771
:1004500060468FE78146BAE7614677E708464BE793
:10046000ACF1020C3D4415E702383C4426E700BFDE
:10047000704700BF00000000000000000000000006
:1004800001F0FF01102A2BDB10F0070F08D010F845
:10049000013B013A8B422DD010F0070F42B3F6D149
:1004A000F0B441EA012141EA014122F007047FF062
:1004B00000070023F0E80256083C85EA010586EAB9
:1004C000010685FA47F5A3FA87F586FA47F6A5FAF5
:1004D00087F68EB9EED1F0BC01F0FF0102F0070201
:1004E00032B110F8013B013A83EA010313B1F8D1AC
:1004F0000020704701387047002D06BF354603388D
:10050000073815F0010F07D1013015F4807F02BFC5
:10051000013015F4C03F0130F0BC0138704700BF16
:10052000844641EA000313F003036DD1403A41D3FE
:1005300051F8043B40F8043B51F8043B40F8043BBD
:1005400051F8043B40F8043B51F8043B40F8043BAD
:1005500051F8043B40F8043B51F8043B40F8043B9D
:1005600051F8043B40F8043B51F8043B40F8043B8D
:1005700051F8043B40F8043B51F8043B40F8043B7D
:1005800051F8043B40F8043B51F8043B40F8043B6D
:1005900051F8043B40F8043B51F8043B40F8043B5D
:1005A00051F8043B40F8043B51F8043B40F8043B4D
:1005B000403ABDD2303211D351F8043B40F8043BED
:1005C00051F8043B40F8043B51F8043B40F8043B2D
:1005D00051F8043B40F8043B103AEDD20C3205D3FD
:1005E00051F8043B40F8043B043AF9D2043208D0F5
:1005F000D2071CBF11F8013B00F8013B01D30B8867
:1006000003806046704700BF082A13D38B078DD044
:1006100010F003038AD0C3F10403D21ADB071CBF16
:1006200011F8013B00F8013B80D331F8023B20F880
:10063000023B7BE7043AD9D3013A11F8013B00F8B9
:10064000013BF9D20B7803704B7843708B78837041
:10065000604670470000000000000000000000003D
:10066000000000000000000000000000000000008A
:10067000000000000000000000000000000000007A
:1006800090F800F06DE9024520F007016FF0000CD2
:1006900010F0070491F820F040F049804FF000047A
:1006A0006FF00700D1E9002391F840F000F1080055
:1006B00082FA4CF2A4FA8CF283FA4CF3A2FA8CF38D
:1006C0004BBBD1E9022382FA4CF200F10800A4FAF4
:1006D0008CF283FA4CF3A2FA8CF3E3B9D1E9042348
:1006E00082FA4CF200F10800A4FA8CF283FA4CF37F
:1006F000A2FA8CF37BB9D1E9062301F1200182FA39
:100700004CF200F10800A4FA8CF283FA4CF3A2FA3E
:100710008CF3002BC6D0002A04BF04301A4612BA4C
:10072000B2FA82F2FDE8024500EBD2007047D1E94F
:10073000002304F00305C4F100004FEAC50514F0DE
:10074000040F91F840F00CFA05F562EA05021CBFAF
:1007500063EA050362464FF00004A9E781F0004117
:1007600002E000BF83F0004330B54FEA41044FEA96
:10077000430594EA050F08BF90EA020F1FBF54EA31
:10078000000C55EA020C7FEA645C7FEA655C00F0CD
:10079000E2804FEA5454D4EB5555B8BF6D420CDD9E
:1007A0002C4480EA020281EA030382EA000083EA21
:1007B000010180EA020281EA0303362D88BF30BDC1
:1007C00011F0004F4FEA01314FF4801C4CEA113117
:1007D00002D0404261EB410113F0004F4FEA033376
:1007E0004CEA133302D0524263EB430394EA050F01
:1007F00000F0A780A4F10104D5F1200E0DDB02FA70
:100800000EFC22FA05F2801841F1000103FA0EF203
:10081000801843FA05F359410EE0A5F120050EF1C9
:10082000200E012A03FA0EFC28BF4CF0020C43FAFA
:1008300005F3C01851EBE37101F0004507D54FF007
:10084000000EDCF1000C7EEB00006EEB0101B1F557
:10085000801F1BD3B1F5001F0CD349085FEA30009D
:100860004FEA3C0C04F101044FEA445212F5800FA8
:1008700080F09A80BCF1004F08BF5FEA500C50F145
:10088000000041EB045141EA050130BD5FEA4C0C28
:10089000404141EB0101013C28BFB1F5801FE9D285
:1008A00091F0000F04BF01460020B1FA81F308BFA8
:1008B0002033A3F10B03B3F120020CDA0C3208DD74
:1008C00002F1140CC2F10C0201FA0CF021FA02F14F
:1008D0000CE002F11402D8BFC2F1200C01FA02F1BF
:1008E00020FA0CFCDCBF41EA0C019040E41AA2BFE4
:1008F00001EB0451294330BD6FEA04041F3C1CDAAC
:100900000C340EDC04F11404C4F1200220FA04F0CB
:1009100001FA02F340EA030021FA04F345EA030175
:1009200030BDC4F10C04C4F1200220FA02F001FA37
:1009300004F340EA0300294630BD21FA04F02946B9
:1009400030BD94F0000F83F4801306BF81F4801152
:100950000134013D4EE77FEA645C18BF7FEA655CC5
:1009600029D094EA050F08BF90EA020F05D054EA97
:10097000000C04BF1946104630BD91EA030F1EBF9C
:100980000021002030BD5FEA545C05D140004941A0
:1009900028BF41F0004130BD14F580043CBF01F593
:1009A000801130BD01F0004545F0FE4141F4700179
:1009B0004FF0000030BD7FEA645C1ABF1946104654
:1009C0007FEA655C1CBF0B46024650EA013406BF55
:1009D00052EA033591EA030F41F4002130BD00BF14
:1009E00090F0000F04BF0021704730B54FF48064D1
:1009F00004F132044FF000054FF0000150E700BF52
:100A000090F0000F04BF0021704730B54FF48064B0
:100A100004F1320410F0004548BF40424FF000019D
:100A20003EE700BF42004FEAE2014FEA31014FEAE0
:100A300002701FBF12F07F4393F07F4F81F060512F
:100A4000704732F07F4208BF704793F07F4F04BF7A
:100A500041F40021704730B54FF4607401F0004557
:100A600021F000411CE700BF50EA010208BF7047B7
:100A700030B54FF000050AE050EA010208BF7047A8
:100A800030B511F0004502D5404261EB41014FF411
:100A9000806404F132045FEA915C3FF4D8AE4FF019
:100AA00003025FEADC0C18BF03325FEADC0C18BFFC
:100AB000033202EBDC02C2F1200300FA03FC20FA4D
:100AC00002F001FA03FE40EA0E0021FA02F114449A
:100AD000BDE600BF70B54FF0FF0C4CF4E06C1CEAB3
:100AE00011541DBF1CEA135594EA0C0F95EA0C0F24
:100AF00000F0DEF82C4481EA030621EA4C5123EA97
:100B00004C5350EA013518BF52EA033541F48011C5
:100B100043F4801338D0A0FB02CE4FF00005E1FB78
:100B200002E506F00042E0FB03E54FF00006E1FBC2
:100B300003569CF0000F18BF4EF0010EA4F1FF0405
:100B4000B6F5007F64F5407404D25FEA4E0E6D4145
:100B500046EB060642EAC62141EA55514FEAC52056
:100B600040EA5E504FEACE2EB4F1FD0C88BFBCF5D2
:100B7000E06F1ED8BEF1004F08BF5FEA500E50F183
:100B8000000041EB045170BD06F0004646EA010149
:100B900040EA020081EA0301B4EB5C04C2BFD4EB7B
:100BA0000C0541EA045170BD41F480114FF0000E74
:100BB000013C00F3AB8014F1360FDEBF002001F0E2
:100BC000004170BDC4F10004203C35DA0C341BDC5C
:100BD00004F11404C4F1200500FA05F320FA04F02E
:100BE00001FA05F240EA020001F0004221F0004162
:100BF00010EBD37021FA04F642EB06015EEA430ED5
:100C000008BF20EAD37070BDC4F10C04C4F1200504
:100C100000FA04F320FA05F001FA04F240EA0200B7
:100C200001F0004110EBD37041F100015EEA430E88
:100C300008BF20EAD37070BDC4F1200500FA05F2A8
:100C40004EEA020E20FA04F301FA05F243EA020327
:100C500021FA04F001F0004121FA04F220EA020036
:100C600000EBD3705EEA430E08BF20EAD37070BD7C
:100C700094F0000F0FD101F00046400041EB01015C
:100C800011F4801F08BF013CF7D041EA060195F03E
:100C9000000F18BF704703F00046520043EB0303F8
:100CA00013F4801F08BF013DF7D043EA06037047E5
:100CB00094EA0C0F0CEA135518BF95EA0C0F0CD0F0
:100CC00050EA410618BF52EA4306D1D181EA030136
:100CD00001F000414FF0000070BD50EA410606BF30
:100CE0001046194652EA430619D094EA0C0F02D175
:100CF00050EA013613D195EA0C0F05D152EA0336BA
:100D00001CBF104619460AD181EA030101F00041D7
:100D100041F0FE4141F470014FF0000070BD41F020
:100D2000FE4141F4780170BD70B54FF0FF0C4CF4FA
:100D3000E06C1CEA11541DBF1CEA135594EA0C0F19
:100D400095EA0C0F00F0A7F8A4EB050481EA030E66
:100D500052EA03354FEA013100F088804FEA03334D
:100D60004FF0805545EA131343EA12634FEA02221B
:100D700045EA111545EA10654FEA00260EF00041DC
:100D80009D4208BF964244F1FD0404F5407402D22E
:100D90005B084FEA3202B61A65EB03055B084FEABF
:100DA00032024FF480104FF4002CB6EB020E75EBBC
:100DB000030E22BFB61A754640EA0C005B084FEAE4
:100DC0003202B6EB020E75EB030E22BFB61A754661
:100DD00040EA5C005B084FEA3202B6EB020E75EBAC
:100DE000030E22BFB61A754640EA9C005B084FEA24
:100DF0003202B6EB020E75EB030E22BFB61A754631
:100E000040EADC0055EA060E18D04FEA051545EA1F
:100E100016754FEA06164FEAC30343EA52734FEAC8
:100E2000C2025FEA1C1CC0D111F4801F0BD141EA41
:100E300000014FF000004FF0004CB6E711F4801FA6
:100E400004BF01430020B4F1FD0C88BFBCF5E06F86
:100E50003FF6AFAEB5EB030C04BFB6EB020C5FEA96
:100E6000500C50F1000041EB045170BD0EF0004EEB
:100E70004EEA113114EB5C04C2BFD4EB0C0541EA1D
:100E8000045170BD41F480114FF0000E013C90E61A
:100E900045EA060E8DE60CEA135594EA0C0F08BFDE
:100EA00095EA0C0F3FF43BAF94EA0C0F0AD150EADD
:100EB00001347FF434AF95EA0C0F7FF425AF104670
:100EC00019462CE795EA0C0F06D152EA03353FF498
:100ED000FDAE1046194622E750EA410618BF52EA15
:100EE00043067FF4C5AE50EA41047FF40DAF52EAE9
:100EF00043057FF4EBAE12E74FF0FF3C06E000BF86
:100F00004FF0010C02E000BF4FF0010C4DF804CD92
:100F10004FEA410C7FEA6C5C4FEA430C18BF7FEA52
:100F20006C5C1BD001B050EA410C0CBF52EA430C80
:100F300091EA030F02BF90EA020F0020704710F100
:100F4000000F91EA030F58BF994208BF90422CBF8F
:100F5000D8176FEAE37040F0010070474FEA410C88
:100F60007FEA6C5C02D150EA013C07D14FEA430CA6
:100F70007FEA6C5CD6D152EA033CD3D05DF8040B17
:100F8000704700BF8446104662468C461946634649
:100F900000E000BF01B5FFF7B7FF002848BF10F120
:100FA000000F01BD4DF808EDFFF7F4FF0CBF012065
:100FB00000205DF808FB00BF4DF808EDFFF7EAFFE1
:100FC00034BF012000205DF808FB00BF4DF808ED9C
:100FD000FFF7E0FF94BF012000205DF808FB00BF91
:100FE0004DF808EDFFF7CEFF94BF012000205DF81B
:100FF00008FB00BF4DF808EDFFF7C4FF34BF012028
:1010000000205DF808FB00BF4FEA410C7FEA6C5CF2
:1010100002D150EA013C0AD14FEA430C7FEA6C5CF2
:1010200002D152EA033C02D14FF0000070474FF06A
:10103000010070474FEA410212F5001215D211D596
:101040006FF47873B3EB625212D94FEAC12343F0C5
:10105000004343EA505311F0004F23FA02F018BF47
:10106000404270474FF00000704750EA013005D110
:1010700011F0004008BF6FF0004070474FF00000D3
:10108000704700BF08B50221014800F0B8FD08BD57
:101090000004004808B50121014800F0B0FD08BD7A
:1010A0000004004808B52021014800F0A8FD08BD53
:1010B0000004004808B5032805D8DFE800F002085E
:1010C000050BFFF7DFFF08BDFFF7ECFFFBE7FFF7BE
:1010D000E1FFF8E7FFF7D6FFFFF7E4FFFFF7DAFFDE
:1010E000F1E708B5FFF7CEFF642000F0BDFAFFF787
:1010F000D1FF642000F0B8FAFFF7D4FF642000F0BD
:10110000B3FAFFF7CFFF642000F0AEFAFFF7C2FF9B
:10111000642000F0A9FAFFF7B5FF642000F0A4FAFC
:1011200008BD000030B58BB00024059406940794E8
:10113000089409944FF0B043DA6C42F00402DA6488
:10114000DA6C02F004020492049ADA6C42F00202B1
:10115000DA64DA6C02F002020392039ADA6C42F06B
:101160000102DA64DA6C02F001020292029ADA6C8D
:1011700042F00802DA64DB6C03F008030193019B80
:10118000174D22462321284600F034FD10230593F5
:101190000694079405A9134800F068FC23230593DF
:1011A000012306930794089405A9284600F05EFCE5
:1011B0004FF4C053059302230693079408940A231F
:1011C000099305A94FF0904000F050FC03230593CC
:1011D0000694079405A9044800F048FC0BB030BD04
:1011E0000004004800080048000C004800B583B027
:1011F0004FF0B0439A6C42F004029A649A6C02F089
:1012000004020192019A9A6C42F002029A649B6C69
:1012100003F002030093009B002211463A2000F0E5
:1012200049FA3A2000F07AFA03B05DF804FB72B68E
:10123000FEE7000008B51548154B03604FF4E13395
:10124000436000238360C36003610C2242618361B9
:10125000C36103624362836202F055F970B90021F1
:101260000A4802F0CBF958B90021084802F0EBF91E
:1012700040B9064802F0A3F930B908BDFFF7D7FF1F
:10128000FFF7D5FFFFF7D3FFFFF7D1FF3C0A0020A0
:101290000038014010B5AEB0482200211CA802F071
:1012A00021FA0024159416941794189419941A94FA
:1012B0001B945022214601A802F014FA1E4A13681A
:1012C00023F4C06343F400731360136803F4C06332
:1012D0000093009B03231C934FF480331D934FF422
:1012E00080731F934023209327941CA800F094FD43
:1012F000D8B96F23159302231693002317931893DD
:1013000019931A931B93012115A801F01BF970B9C9
:1013100042F201030193002307931393149301A84E
:1013200001F03BFB28B92EB010BDFFF780FFFFF79F
:101330007EFFFFF77CFF00BF0004005808B500F0F7
:1013400065F9FFF7A7FFFFF7EDFEFFF74FFFFFF788
:1013500071FFFFF7C6FE0020FFF7ACFE034802F066
:1013600011FA4FF47A7000F07FF9F4E7DC85000899
:101370007047000030B589B00023039304930593B0
:10138000069307930268244B9A4201D009B030BDFE
:1013900004464FF0B0431A6E42F480421A661A6E49
:1013A00002F480420292029ADA6C42F00202DA649B
:1013B000DB6C03F002030193019BC0230393022320
:1013C000049301230593002506950723079303A99A
:1013D000124800F04BFB1248124B03600F2343608E
:1013E00010238360C5608023036145618561C56109
:1013F000056200F0F7F958B9094BA3679C62002217
:101400001146242000F056F9242000F087F9BDE7AA
:10141000FFF70DFFF0E700BF00380140000400486F
:10142000DC09002044040240FEE7FEE7FEE7FEE799
:10143000FEE770477047704708B500F0FDF808BD3B
:1014400008B5024801F082FC08BD00BF3C0A00203C
:1014500008B5024800F0A7FA08BD00BFDC0900206B
:1014600070B50C4616460025B54207DAAFF300808A
:10147000214601F8010B01350C46F5E7304670BDF9
:1014800070B50C4616460025B54205DA14F8010B76
:10149000AFF300800135F7E7304670BD4FF0FF3005
:1014A00070474FF400534B60002070470120704795
:1014B0000020704710B503460C4A0D490D480068DE
:1014C00040B10C4800680344521A934206D8094AB6
:1014D000136010BD0748084C0460F2E702F0D8F82A
:1014E0000C2303604FF0FF30F3E700BF0000032040
:1014F00000040000CC0A0020300B00204FF0B04365
:101500001A6842F001021A604FF4E0229A601968EA
:10151000A2F1A262A2F205120A401A60D3F8942046
:1015200022F00502C3F89420D3F8982022F001029B
:10153000C3F89820044ADA601A611A6822F48022FB
:101540001A6000229A61704700100422D458C450D7
:101550000433C4188C42F9D37047036004308842C6
:10156000FBD370470C488546FFF7C8FF0B480C4972
:101570000C4A0023FFF7EDFF0B480C490023FFF74F
:10158000EEFF0B480B490023FFF7E9FF02F086F856
:10159000FFF7D4FEFEE70000000003200800002053
:1015A000C00900204C890008C0090020300B002031
:1015B0000000032000000320FEE70000114B1B7811
:1015C0000BB90120704710B5044600F015FC0D4B17
:1015D0001A784FF47A73B3FBF2F3B0FBF3F000F038
:1015E000ABF868B90F2C01D901200AE0002221468E
:1015F0004FF0FF3000F05EF8034B1C60002000E06D
:10160000012010BD0C0000201000002010B5094A78
:10161000136843F480731360032000F039F800204E
:10162000FFF7CCFF10B10124204610BD0446FFF7A0
:101630009FFEF9E700400058034B1B78034A1168EE
:101640000B441360704700BF0C000020D00A00203C
:10165000014B1868704700BFD00A0020014B186882
:10166000704700BF1000002038B50446FFF7F0FFB8
:101670000546B4F1FF3F02D0044B1B781C44FFF732
:10168000E7FF401BA042FAD338BD00BF0C0000208A
:10169000074AD36823F4E0631B041B0C000200F428
:1016A000E060034343F0BF6343F40033D36070470B
:1016B00000ED00E030B4174BDB68C3F30223C3F145
:1016C0000704042C28BF04241D1D062D18D9033B34
:1016D0004FF0FF3505FA04F421EA0401994005FAB8
:1016E00003F322EA0303194300280BDB0901C9B203
:1016F00000F1604000F5614080F8001330BC704795
:101700000023E5E700F00F000901C9B2024B1954AC
:10171000F4E700BF00ED00E014ED00E0002807DB77
:1017200000F01F02400901239340024A42F8203092
:10173000704700BF00E100E00138B0F1807F0AD2BD
:10174000064B5860064AF02182F82310002098606A
:1017500007221A6070470120704700BF10E000E0C8
:1017600000ED00E00368104A934215D8426C22F065
:10177000030202F1804202F502328264DBB2083BCE
:101780000A4AA2FB03230A4AC264C3F304130122D8
:1017900002FA03F303657047426C22F00301054A25
:1017A0000A448264EAE700BF07040240CDCCCCCCF7
:1017B000800802401C080240436803F03F03074AC8
:1017C0001A4492004265064A8265013B03F0030316
:1017D000012202FA03F3C365704700BF3F82001085
:1017E0004009024000285DD010B5044601682E4B28
:1017F00099423FD82D4B0B442D4AA2FB03231B09D2
:101800009B0043642B4B0364022384F825300A6851
:1018100022F4FF4222F07002A368E06803432069CB
:10182000034360690343A0690343E0690343206AFB
:10183000034313430B602046FFF794FFA368B3F5FF
:10184000804F22D06368A26C03F03F031360E36C07
:10185000226D5A606368013B032B19D9002363652D
:10186000A365E3650020E063012384F8253084F854
:10187000240010BD104B0B440D4AA2FB03231B098F
:101880009B0043640D4B0364BEE700236360D9E70C
:101890002046FFF791FF636D00221A60A36DE26D91
:1018A0005A60DFE70120704707040240F8FFFDBFE0
:1018B000CDCCCCCC00000240F8FBFDBF00040240C0
:1018C0000346002834D090F82520D2B2022A06D050
:1018D0000422C263002280F824200120704701689E
:1018E0000A6822F00E020A60816C0A6822F4807293
:1018F0000A6001680A6822F001020A60426C02F084
:101900001C01006C01228A404260DA6C196D516042
:101910005A6D32B1116821F4807111609A6DD96DE0
:101920005160012283F82520002083F824007047AD
:101930000120704708B590F82530DBB2022B03D0A8
:101940000423C363012008BD0268136823F00E035B
:1019500013600268136823F001031360826C13683C
:1019600023F480731360436C03F01C02016C0123A9
:1019700093404B60C36C026D5A60436D33B11A687B
:1019800022F480721A60836DC26D5A60012380F860
:101990002530002380F82430836B13B19847002052
:1019A000D1E70020CFE738B5036C196804682568D3
:1019B000436C03F01C0304229A400A4215D015F030
:1019C000040F12D0236813F0200F03D1236823F0F3
:1019D00004032360436C03F01C02016C0423934056
:1019E0004B60036B03B1984738BD02229A400A420C
:1019F0001CD015F0020F19D0236813F0200F06D168
:101A0000236823F00A032360012380F82530436C08
:101A100003F01C02016C022393404B60002380F80A
:101A20002430C36A002BDFD09847DDE7082202FA92
:101A300003F30B42D8D015F0080FD5D0236823F05C
:101A40000E032360436C03F01C03016C012202FAB5
:101A500003F34B60C26380F82520002380F8243014
:101A6000436B002BC0D09847BEE70000F0B40023C2
:101A70005FE086685F000325BD4026EA0506CD6865
:101A8000BD4035438560466826EA04064D68C5F3C7
:101A900000149C403443446059E0DD08083550F898
:101AA000257003F00704A6000F24B44027EA0407BA
:101AB0000C69B4403C4340F825405CE0042400E05D
:101AC0000024B4403C430235474E46F82540474C7D
:101AD000D4F88050D44325EA02064F6817F4803FBB
:101AE00001D042EA0506414DC5F88060D5F8845022
:101AF00004EA05064F6817F4003F01D042EA0506E4
:101B00003A4DC5F884602D6804EA05064F6817F45D
:101B1000801F01D042EA0506344D2E606D682C40CE
:101B20004E6816F4001F01D042EA05042F4A5460A3
:101B300001330A6832FA03F454D001249C40224055
:101B4000F6D04D6805F00305013D012D91D94C6893
:101B500004F00304032C09D0C5685E000324B440DC
:101B600025EA04058C68B4402C43C4604C6804F03A
:101B70000304022C91D005685E000324B44025EADA
:101B800004054C6804F00304B4402C4304604C6822
:101B900014F4403FCCD09D08AE1C134C54F8267072
:101BA00003F00304A6000F24B44027EA0407B0F1B1
:101BB000904F85D00E4CA0420ED004F58064A04218
:101BC0000CD004F58064A0420AD004F58064A042E1
:101BD0003FF474AF072474E7012472E7022470E72E
:101BE00003246EE7F0BC7047000001400008005875
:101BF000000400480AB181617047816270474369FF
:101C000001EA030221EA030141EA024181617047CE
:101C1000024A136843F4807313607047000400584D
:101C2000024B186800F4C060704700BF0004005801
:101C3000F0B58DB005460F462A4C94E80F000CAE67
:101C400006E90F0005AB04F1100207CA83E807009C
:101C500001AE1C3494E80F0086E80F00B7F5007F52
:101C60001BD00023022B22D80CAA02EB830252F8CD
:101C70001C2CAA4215D20133F4E70133032B0ED8F2
:101C80000CAA02EB830252F8102CAA42F5D30CAA3C
:101C900002EB830353F82C5C0AE00023EEE70025F7
:101CA00006E00CAA02EB830353F82C5C00E000254D
:101CB0000D4A136823F007032B431360FFF7C8FC9A
:101CC0000446094B1B6803F00703AB4206D0FFF73D
:101CD000BFFC001B0228F4D9032000E000200DB057
:101CE000F0BD00BFB08500080040005810B5B02816
:101CF00016D90E4BDC6A4FF0B043D3F8083103F02D
:101D00000F030B4A52F82300B4FBF0F4FFF788FFEF
:101D100001460848A0FB0430800CFFF789FF10BD86
:101D2000C0F30310014B53F82040E4E74486000859
:101D3000E485000883DE1B434FF0B0439B6813F03B
:101D40000C030DD14FF0B0431B6803F0F003B02B30
:101D500004D81B09254A52F823007047B023F8E73E
:101D6000042B3ED0082B10D04FF0B043DB6803F0BB
:101D70000303022B1FD0032B0FD14FF0B0431B687E
:101D800013F4801F2BD11A4B16E04FF0B0431B68A1
:101D900013F4801F27D0174870474FF0B0431B68DB
:101DA00003F0F003B02B04D81B09104A52F823307B
:101DB00002E0B023F8E70F4B4FF0B042D068C0F319
:101DC000062000FB03F0D368C3F302130133B0FB1A
:101DD000F3F0D3685B0F0133B0FBF3F07047054BB2
:101DE000EAE7044870470248704700BF448600088D
:101DF0000048E8010024F40008B5FFF79DFF4FF00C
:101E0000B0439B68C3F30313024A52F82330B0FB7C
:101E1000F3F008BDE4850008002800F07E8338B5A3
:101E20000446036813F0200F7FD04FF0B042936850
:101E3000D26802F0030213F00C031DD00C2B19D052
:101E4000E369002B00F09E804FF0B042136843F02E
:101E500001031360FFF7FCFB05464FF0B0431B681E
:101E600013F0020F52D1FFF7F3FB401B0228F4D905
:101E700003205DE3012AE3D14FF0B0431B6813F068
:101E8000020F03D0E369002B00F04983606A4FF032
:101E9000B0431B6803F0F003B02B20D8984220D940
:101EA000FFF724FF002840F03C83636A4FF0B04204
:101EB000116821F0F0010B431360216A536823F489
:101EC0007F4343EA01235360FFF796FFC44B18603A
:101ED000C44B1868FFF772FB38B3012028E3B02326
:101EE000DCE74FF0B042136823F0F00318431060B2
:101EF000216A536823F47F4343EA01235360606AF5
:101F0000FFF7F4FE0028DFD0012011E3636A4FF0F1
:101F1000B042116821F0F0010B431360216A53684D
:101F200023F47F4343EA01235360236813F0010F36
:101F30004AD04FF0B042936803F00C03D26802F02D
:101F40000302082B36D00C2B32D06368B3F5803FE8
:101F500063D04FF0B042136823F48033136063689A
:101F6000002B61D0FFF774FB05464FF0B0431B68B0
:101F700013F4003F28D1FFF76BFB401B6428F4D912
:101F80000320D5E24FF0B042136823F00103136041
:101F9000FFF75EFB05464FF0B0431B6813F0020FDE
:101FA000C3D0FFF755FB401B0228F4D90320BFE242
:101FB000032ACAD14FF0B0431B6813F4003F03D08B
:101FC0006368002B00F0AF82236813F0020F50D03B
:101FD0004FF0B042936803F00C03D26802F00302A2
:101FE000042B33D00C2B2FD0E368002B77D04FF08D
:101FF000B042136843F480731360FFF729FB054672
:102000004FF0B0431B6813F4806F5ED1FFF720FBE5
:10201000401B0228F4D903208AE24FF0B042136833
:1020200043F4803313609AE7FFF712FB05464FF045
:10203000B0431B6813F4003FC6D0FFF709FB401BF9
:102040006428F4D9032073E2022ACDD14FF0B043C3
:102050001B6813F4806F03D0E368002B00F06582E7
:1020600021694FF0B042536823F0FE4343EA016315
:102070005360236813F0180F00F0E8806269002AAB
:1020800000F0B28013F0100F7AD04FF0B043D3F8C5
:10209000943013F0020F38D14FF0B042D2F89430A0
:1020A00043F00103C2F89430FFF7D2FA05464FF02F
:1020B000B043D3F8943013F0020F26D1FFF7C8FADB
:1020C000401B0228F3D9032032E221694FF0B042CD
:1020D000536823F0FE4343EA01635360C9E74FF0BE
:1020E000B042136823F480731360FFF7B1FA05461A
:1020F0004FF0B0431B6813F4806FBAD0FFF7A8FA13
:10210000401B0228F4D9032012E24FF0B042D2F86B
:10211000943043F00403C2F89430FFF799FA05466F
:102120004FF0B043D3F8943013F0080F06D1FFF707
:102130008FFA401B0328F3D90320F9E1A1694FF07E
:10214000B042D2F8943023F4706343EA0123C2F81A
:102150009430D2F8943023F00103C2F89430FFF7A2
:1021600077FA05464FF0B043D3F8943013F0020FDE
:102170006CD0FFF76DFA401B0228F3D90320D7E19A
:102180004FF0B042D2F8943043F00103C2F89430DB
:10219000FFF75EFA05464FF0B043D3F8943013F0E2
:1021A000020F06D1FFF754FA401B0228F3D903208F
:1021B000BEE14FF0B042D2F8943023F00403C2F8ED
:1021C00094304FF0B043D3F8943013F0080F3DD063
:1021D000FFF73EFA401B0328F3D90320A8E100BF14
:1021E00008000020100000204FF0B042D2F89430D8
:1021F00023F00403C2F89430FFF72AFA05464FF0A3
:10220000B043D3F8943013F0080F18D14FF0B04218
:10221000D2F8943023F00103C2F89430FFF718FA93
:1022200005464FF0B043D3F8943013F0020F0DD0B1
:10223000FFF70EFA401B0228F3D9032078E1FFF7DD
:1022400007FA401B0328DAD9032071E1236813F051
:10225000040F68D0B94B1B6813F4807F27D0A368A4
:10226000012B35D0052B3CD04FF0B043D3F8902054
:1022700022F00102C3F89020D3F8902022F004024B
:10228000C3F89020A368DBB3FFF7E2F905464FF0EF
:10229000B043D3F8903013F0020F44D1FFF7D8F9D0
:1022A000401B41F288339842F1D9032040E1FFF707
:1022B000AFFCFFF7CDF90546A04B1B6813F4807FF8
:1022C000CDD1FFF7C5F9401B0228F5D903202FE136
:1022D0004FF0B042D2F8903043F00103C2F8903092
:1022E000D0E74FF0B043D3F8902042F00402C3F897
:1022F0009020D3F8902042F00102C3F89020C1E76B
:10230000FFF7A6F905464FF0B043D3F8903013F02D
:10231000020F08D0FFF79CF9401B41F28833984226
:10232000F1D9032004E1236813F0400F33D0A36AEE
:10233000C3B14FF0B042D2F8983043F00103C2F875
:102340009830FFF785F905464FF0B043D3F8983041
:1023500013F0020F1FD1FFF77BF9401B0228F3D9BE
:102360000320E5E04FF0B042D2F8983023F00103AB
:10237000C2F89830FFF76CF905464FF0B043D3F838
:10238000983013F0020F06D0FFF762F9401B0228C5
:10239000F3D90320CCE0E36A002B00F0C8804FF0B3
:1023A000B042916801F00C01D268022B23D00C29B5
:1023B00000F0C1804FF0B0431A6822F080721A60BA
:1023C000DA6822F00302DA60DA6822F0885222F436
:1023D0008032DA60FFF73CF904464FF0B0431B68E7
:1023E00013F0007F00F09780FFF732F9001B0228FE
:1023F000F3D903209CE002F00303206B83420AD050
:102400000C2900F096804FF0B0431B6813F0806FEA
:1024100022D001208CE002F07003606B8342EFD188
:10242000C2F30623A06B8342EAD102F47813E06B77
:102430008342E5D102F06063206C8342E0D102F078
:102440006042636C9A42DBD14FF0B0431B6813F0DB
:10245000007F44D000206BE04FF0B042136823F0BF
:1024600080731360FFF7F4F805464FF0B0431B6824
:1024700013F0007F06D0FFF7EBF8401B0228F4D9D9
:10248000032055E04FF0B042D3682D491940236B2B
:10249000606B0343A06B43EA0023E06B0343206CB3
:1024A0000343606C03430B43D360136843F08073B2
:1024B0001360D36843F08053D360FFF7C9F8044634
:1024C0004FF0B0431B6813F0007F06D1FFF7C0F850
:1024D000001B0228F4D903202AE0002028E04FF056
:1024E000B0431A6842F080721A60DA6842F0805293
:1024F000DA60FFF7ADF804464FF0B0431B6813F005
:10250000007F06D1FFF7A4F8031B022BF4D90320A8
:102510000EE000200CE000200AE0012070470120BE
:1025200006E0012004E0012002E0012000E000209C
:1025300038BD0120FCE70120FAE700BF0004005885
:102540008C80C111002800F0278170B50C4605462B
:10255000934B1B6803F007038B422DD32B6813F0BA
:10256000020F3FD12B6813F0200F53D12B6813F0CB
:10257000400F6AD12B6813F0040F40F083802B6862
:1025800013F0080F40F097802B6813F0010F00F054
:10259000DE806B68022B00F0A880032B00F0AD807A
:1025A000002B40F0B2804FF0B042126812F0020FE0
:1025B00040F0B1800120EEE0794A136823F0070370
:1025C0000B431360FFF744F80646754B1B6803F096
:1025D0000703A342C2D0FFF73BF8801B0228F4D9BF
:1025E0000320D8E0AB684FF0B0418A6822F0F002D7
:1025F00013438B60FFF72CF806464FF0B0439B68FF
:1026000013F4803FAED1FFF723F8801B0228F4D9E2
:102610000320C0E06B694FF0B041D1F8082122F0EF
:10262000F0021343C1F80831FFF712F806464FF0E5
:10263000B043D3F8083113F4003F97D1FFF708F8FF
:10264000801B0228F3D90320A5E0A9694FF0B0420E
:10265000D2F8083123F00F0343EA1113C2F808310E
:10266000FEF7F6FF06464FF0B043D3F8083113F4F7
:10267000803F7FF47FAFFEF7EBFF801B0228F2D98B
:10268000032088E0EB684FF0B0418A6822F4E062F2
:1026900013438B60FEF7DCFF06464FF0B0439B68A8
:1026A00013F4003F7FF46BAFFEF7D2FF801B0228CC
:1026B000F3D903206FE029694FF0B042936823F407
:1026C000605343EAC1039360FEF7C2FF06464FF032
:1026D000B0439B6813F4802F7FF456AFFEF7B8FF2A
:1026E000801B0228F3D9032055E04FF0B042126856
:1026F00012F4003F0FD101204DE04FF0B0421268BC
:1027000012F0007F07D1012045E04FF0B04212687F
:1027100012F4806F42D04FF0B0418A6822F0030279
:1027200013438B60FEF794FF06464FF0B0439B685F
:1027300003F00C036A68B3EB820F08D0FEF788FF42
:10274000801B41F288339842EFD9032023E0144BD9
:102750001B6803F00703A34215D9114A136823F03D
:10276000070323431360FEF773FF05460C4B1B68FA
:1027700003F00703A34206D0FEF76AFF401B0228BE
:10278000F4D9032007E0FFF737FB064B1860FEF78C
:1027900065FFFEF713FF70BD012070470120FAE7C7
:1027A000004000580800002008B5FFF725FB4FF057
:1027B000B0439B68C3F30223034A52F8233003F06B
:1027C0001F03D84008BD00BF2486000808B5FFF7E6
:1027D00013FB4FF0B0439B68C3F3C223034A52F884
:1027E000233003F01F03D84008BD00BF2486000833
:1027F00070B505464FF0B042136823F08063136054
:10280000FEF726FF04464FF0B0431B6813F0006F3D
:1028100006D0FEF71DFF001B0228F4D9032400E0B8
:1028200000240CB1204670BD4FF0B0431A6922F469
:10283000FE42296842EA01221A611A6922F47812DA
:1028400069680A431A611A6842F080621A60FEF7EA
:10285000FFFE06464FF0B0431B6813F0006F05D132
:10286000FEF7F6FE801B0228F4D90324002CD9D1F0
:102870004FF0B042136929690B431361D2E770B579
:1028800005464FF0B042136823F080631360FEF7F3
:10289000DFFE04464FF0B0431B6813F0006F06D014
:1028A000FEF7D6FE001B0228F4D9032400E0002422
:1028B0000CB1204670BD4FF0B0431A6922F4FE42BD
:1028C000296842EA01221A611A6922F06062A96845
:1028D0000A431A611A6842F080621A60FEF7B8FE75
:1028E00006464FF0B0431B6813F0006F05D1FEF7AA
:1028F000AFFE801B0228F4D90324002CD9D14FF05D
:10290000B042136929690B431361D2E770B50546DC
:102910004FF0B042136823F080631360FEF798FE17
:1029200004464FF0B0431B6813F0006F06D0FEF76B
:102930008FFE001B0228F4D9032400E000240CB110
:10294000204670BD4FF0B0431A6922F4FE42296858
:1029500042EA01221A611A6922F06042E9680A43D8
:102960001A611A6842F080621A60FEF771FE06462C
:102970004FF0B0431B6813F0006F05D1FEF768FEFF
:10298000801B0228F4D90324002CD9D14FF0B04287
:10299000136929690B431361D2E770B504460368D4
:1029A00013F0400F2FD0036BB3F5800F21D00AD85E
:1029B00033B90430FFF71CFF064658B1054624E042
:1029C00001252E4621E0B3F5000F1AD0B3F5400FD4
:1029D0000CD10026236B4FF0B041D1F8882022F4AF
:1029E00040021343C1F8883000250EE001252E4631
:1029F0000BE04FF0B042D36843F48033D36000263D
:102A0000E8E70026E6E700252E46236813F4006F6A
:102A10000AD04FF0B043D3F8905005F44075236CC2
:102A2000AB4240F0D5803546236813F0010F09D042
:102A3000A3694FF0B041D1F8882022F0030213437C
:102A4000C1F88830236813F0020F09D0E3694FF012
:102A5000B041D1F8882022F440621343C1F8883095
:102A6000236813F0100F0CD0A06A4FF0B041D1F8DA
:102A70008830020C120423EA020343EA0043C1F83F
:102A80008830236813F0200F0CD0E06A4FF0B0417B
:102A9000D1F88830020C120423EA020343EA00430F
:102AA000C1F88830236813F0040F0FD0236A4FF069
:102AB000B040D0F88820190901F47F2122EA0102F0
:102AC0001B0103F47F231343C0F88830236813F0FD
:102AD000080F0FD0636A4FF0B040D0F88820190972
:102AE00001F47F2122EA01021B0103F47F23134337
:102AF000C0F88830236813F4807F13D0636B4FF0E5
:102B0000B041D1F8882022F040621343C1F88830E8
:102B1000636BB3F1006F00F09C80636BB3F1806F67
:102B200000F09C80236813F4007F17D0A36BB3F1EF
:102B3000804F05D0B3F1004F02D0002B40F09680BB
:102B40004FF0B041D1F8882022F040421343C1F841
:102B50008830A36BB3F1C05F00F09A80236813F450
:102B6000806F13D0E36B4FF0B041D1F8882022F092
:102B700040521343C1F88830E36BB3F1005F00F0BB
:102B80008E80E36BB3F1805F00F08E80236813F4D6
:102B9000805F09D0636C4FF0B041D1F8942022F4EB
:102BA00040421343C1F89430236813F4005F0DD002
:102BB000E26C4FF0B043596A21F030010A435A6287
:102BC000A26C596A21F003010A435A62284670BD7B
:102BD000FFF71EF85DB9236C4FF0B041D1F890209B
:102BE00022F440721343C1F8903035461CE74FF091
:102BF000B043D3F89020D3F8901041F48031C3F85B
:102C00009010D3F8901021F48031C3F8901022F482
:102C10004072216C0A43C3F89020D3F8903013F02F
:102C2000010F12D0FEF714FD05464FF0B043D3F864
:102C3000903013F0020F0AD1FEF70AFD401B41F25B
:102C400088339842F1D90325EEE63546ECE6354661
:102C5000EAE6CB6843F08073CB605EE7201DFFF7A8
:102C60000EFE00283FF45EAF05465BE723F080537D
:102C70004FF0B042D2F8881021F04041C2F88810DD
:102C8000D2F8881021F040610B43C2F8883060E729
:102C90004FF0B042D36843F08073D3605EE7CB68F7
:102CA00043F48033CB606CE7201DFFF72FFE002834
:102CB0003FF46CAF054669E7026852E8003F23F431
:102CC000907342E800310029F6D1026802F108034E
:102CD00053E8003F23F0805323F00103083242E819
:102CE00000310029F1D1C36E012B06D02023C0F89A
:102CF00088300023C36603677047026852E8003FCC
:102D000023F0100342E800310029F6D1EEE77047C6
:102D100008B5026852E8003F23F0400342E8003162
:102D20000029F6D12023C0F8843000234367FFF741
:102D3000EEFF08BD704708B5806A0023A0F85E303A
:102D4000A0F85630FFF7F6FF08BD704770B504468F
:102D50000168CB6908688D6840F60F021A4008D1F7
:102D600013F0200F05D010F0200F34D115F0805F44
:102D700031D12AB1BD4A2A4033D1BD4E304230D183
:102D8000E26E012A00F0C38013F4801F03D015F413
:102D9000800F40F0558113F0800F07D010F0800FA6
:102DA00040F0558115F4000F40F0518113F0400FB1
:102DB00003D010F0400F40F0518113F4000F03D006
:102DC00010F0804F40F04E8113F0807F02D0002839
:102DD000C0F2528170BD236F002BFBD02046984774
:102DE000F8E713F0010F09D010F4807F06D0012618
:102DF0000E62D4F88C103143C4F88C1013F0020F1B
:102E00000BD015F0010F08D0216802260E62D4F80D
:102E10008C1041F00401C4F88C1013F0040F0BD097
:102E200015F0010F08D0216804260E62D4F88C102A
:102E300041F00201C4F88C1013F0080F0BD010F011
:102E4000200F00D13AB1226808211162D4F88C20F9
:102E50000A43C4F88C2013F4006F0CD010F0806F7C
:102E600009D022684FF400611162D4F88C2042F03E
:102E70002002C4F88C20D4F88C20002AAAD013F0A9
:102E8000200F09D010F0200F02D115F0805F03D081
:102E9000236F0BB120469847D4F88C2023689B6899
:102EA00013F0400F02D112F0280F29D02046FFF76F
:102EB00003FF23689B6813F0400F1DD0226802F1C6
:102EC000080353E8003F23F04003083242E8003192
:102ED0000029F3D1E36F5BB1664A9A63E06FFEF7B6
:102EE00029FD00283FF476AFE06F836B984771E7C8
:102EF0002046FFF71FFF6DE72046FFF71BFF69E73E
:102F00002046FFF717FF0023C4F88C3062E713F068
:102F1000100F3FF439AF10F0100F3FF435AF10230E
:102F20000B6223689B6813F0400F4FD0E26F136869
:102F30005B689BB2002B3FF44DAFB4F85C10994234
:102F40007FF648AFA4F85E3013681B6813F0200FBB
:102F500031D1226852E8003F23F4807342E8003107
:102F60000029F6D1226802F1080353E8003F23F05C
:102F70000103083242E800310029F3D1226802F14E
:102F8000080353E8003F23F04003083242E80031D1
:102F90000029F3D12023C4F888300023E366226897
:102FA00052E8003F23F0100342E800310029F6D137
:102FB000E06FFEF785FCB4F85C10B4F85E309BB2AD
:102FC000C91A89B22046FFF7C0FE03E7B4F85C10C7
:102FD000B4F85E309BB2C91A89B2B4F85E309BB2C5
:102FE000002B3FF4F7AE00293FF4F4AE226852E81C
:102FF000003F23F4907342E800300028F6D12268A5
:1030000002F1080353E8003F23F0805323F001034B
:10301000083242E800300028F1D12023C4F888307B
:103020000023E3662367226852E8003F23F0100381
:1030300042E800300028F6D12046FFF786FEC9E6B8
:103040004FF480130B62204600F0B6FAC2E6636FBD
:10305000002B3FF4BFAE20469847BBE62046FFF763
:1030600057FEB7E6204600F0A9FAB3E601000010CB
:1030700020010004372D0008204600F09EFAA9E642
:103080002DE9F041044601688368026913434269EF
:103090001343C269134308688F4A024013430B600D
:1030A0002268536823F44053E1680B435360A169DD
:1030B00022688A4B9A4201D0236A1943936823F00D
:1030C0006E4323F430630B4393602268D36A23F08A
:1030D0000F03616A0B43D3622268814B9A4219D075
:1030E0007E4B9A422AD010237C498A4245D0E0691F
:1030F000B0F5004F00F08280013B072B00F2E68024
:10310000DFE813F0AC00AA00E400CE00E400E40025
:10311000E400D1004FF0B043D3F8883003F003034C
:10312000032B09D8DFE803F002041F060123DBE7C5
:103130000423D9E70823D7E71023D5E74FF0B0439E
:10314000D3F8883003F44063B3F5006F0DD005D891
:103150006BB1B3F5806F0CD10423C5E7B3F5406FB5
:1031600009D10823C0E70223BEE70223BCE70023FE
:10317000BAE71023B8E71023B6E7082B00F29680D1
:10318000DFE803F008943A943794949405004FF4E0
:10319000004004E0FFF708FB002800F08980626A25
:1031A000504B33F81220B0FBF2F3656805EB450194
:1031B00099427FD8B3EB053F7ED84FF0000892B21A
:1031C00000234146FCF7DCFF0F0247EA10670602C6
:1031D00068082A464346301847F10001FCF7D0FF43
:1031E000A0F54072404B9A4268D82368D8604046A8
:1031F0004CE0FEF7A1FDCFE73C48D0E7013B072BB1
:103200005ED8DFE803F006045D265D5D5D0A3748A1
:1032100003E0FFF7DBFA002854D0626A314B33F841
:103220001230B0FBF3F06268530803EB4000B0FBD0
:10323000F2F080B2A0F110024FF6EF739A4243D839
:1032400020F00F03C0F3420018432368D860002029
:103250001CE0FEF771FDDEE7244802E0FFF7B6FA56
:10326000B0B3626A1F4B33F81230B0FBF3F06368FF
:1032700000EB5300B0FBF3F080B2A0F110024FF668
:10328000EF739A4226D82368D86000200123A4F85F
:103290006A30A4F86830002323676367BDE8F081D3
:1032A000FEF74AFDDCE74FF40040DAE70120EDE7E6
:1032B0000020EBE70120E9E70120E7E70120E5E74F
:1032C0000120E3E70020E1E70120DFE70120DDE75F
:1032D0000020DBE70120D9E7F369FFCF0080004041
:1032E0000038014084860008FFFC0F000024F40031
:1032F000836A13F0010F06D00268536823F4003389
:10330000C16A0B435360836A13F0020F06D0026850
:10331000536823F48033016B0B435360836A13F0CB
:10332000040F06D00268536823F48023416B0B43DB
:103330005360836A13F0080F06D00268536823F4C1
:103340000043816B0B435360836A13F0100F06D068
:103350000268936823F48053C16B0B439360836AC4
:1033600013F0200F06D00268936823F40053016C19
:103370000B439360836A13F0400F0AD002685368CE
:1033800023F48013416C0B435360436CB3F5801FEF
:103390000BD0836A13F0800F06D00268536823F4C1
:1033A0000023C16C0B43536070470268536823F4D9
:1033B000C003816C0B435360EBE72DE9F8430546EE
:1033C0000F4616469946DDF820802C68E46937EAF6
:1033D00004030CBF01240024B44257D1B8F1FF3FCD
:1033E000F3D0FEF735F9A0EB090040452FD8B8F12E
:1033F000000F2CD02B681A6812F0040FE5D0DA69A0
:1034000012F4006FE1D04FF400621A622A6852E8A9
:10341000003F23F4D07342E800310029F6D12A6836
:1034200002F1080353E8003F23F00103083242E8A9
:1034300000310029F3D12023C5F88430C5F8883045
:10344000C5F88C30002385F8803003201FE02A68FF
:1034500052E8003F23F4D07342E800310029F6D14E
:103460002A6802F1080353E8003F23F00103083201
:1034700042E800310029F3D12023C5F88430C5F893
:103480008830002385F88030032000E00020BDE86C
:10349000F88330B583B004460023C0F88C30FEF7C3
:1034A000D7F8054623681B6813F0080F0FD123686F
:1034B0001B6813F0040F18D12023C4F88430C4F81B
:1034C00088300020E06684F8800003B030BD6FF0E3
:1034D0007E430093034600224FF400112046FFF77D
:1034E0006CFF0028E3D00320EFE76FF07E430093EA
:1034F0002B4600224FF480012046FFF75EFF002894
:10350000DAD00320E1E778B310B50446D0F8843070
:103510000BB32423C4F884302268136823F001031A
:1035200013602046FFF7ACFD012813D0A36ABBB996
:103530002268536823F4904353602268936823F011
:103540002A0393602268136843F001031360204646
:10355000FFF79FFF10BD80F88030FDF70BFFD8E725
:103560002046FFF7C5FEE3E701207047436E2BB905
:103570000123A0F86A30A0F86830704730B40368BF
:103580009A68C2F342629968490F094D6B5CDB008F
:10359000084C615C93FBF1F3A0F86A30AB5CDB0094
:1035A000A25C93FBF2F3A0F8683030BC704700BF18
:1035B000A48600089C86000870477047704790F802
:1035C0008030012B18D0012380F880302423C0F8EC
:1035D000843003681A68196821F00101196022F02B
:1035E00000520023436601680A602022C0F884204C
:1035F00080F88030184670470220704738B590F840
:103600008030012B1DD00446012380F88030242314
:10361000C0F8843003681D681A6822F001021A603D
:103620000268936823F0604319439160FFF79EFF9F
:1036300023681D602023C4F88430002084F88000B3
:1036400038BD0220FCE738B590F88030012B1DD042
:103650000446012380F880302423C0F884300368B6
:103660001D681A6822F001021A600268936823F04C
:10367000606319439160FFF779FF23681D60202381
:10368000C4F88430002084F8800038BD0220FCE7B4
:10369000014B1868704700BF1400002070B50D4E34
:1036A0000D4D761BB61006D0002455F8043B0134AE
:1036B0009847A642F9D1094E094D761B04F06AFFDE
:1036C000B61006D0002455F8043B01349847A642B2
:1036D000F9D170BD40890008408900084889000878
:1036E00040890008F0B4860746D0541E002A3CD01A
:1036F000CAB2034601E0013C37D303F8012B9D0712
:10370000F9D1032C2AD9CDB245EA05250F2C45EA7B
:10371000054534D9A4F1100222F00F0C03F1200763
:103720001609674403F1100242E9045542E90255C3
:103730001032BA42F8D1721C14F00C0F03EB0212D3
:1037400004F00F0613D0331F23F003030433134494
:1037500042F8045B9342FBD106F003042CB1CAB2D9
:103760001C4403F8012B9C42FBD1F0BC704734464B
:103770001346002CF3D1F8E714460346C1E71A4676
:103780002646E0E70FB400B5074983B004AB0868EC
:1037900053F8042B8168019300F008F803B05DF83A
:1037A00004EB04B0704700BF140000202DE9F04F77
:1037B000D5B01C468B461746814603F015F90368C1
:1037C0000D9418461693FCF75BFF1590B9F1000FA6
:1037D00004D0D9F83830002B00F0FD81DBF86430DC
:1037E00013F0010FBBF90C309AB202D19E0540F1E3
:1037F000B48695040AD4DBF8642043F4005322F421
:103800000051ABF80C309AB2CBF86410100740F1BD
:10381000CA80DBF81030002B00F0C58002F01A03DC
:103820000A2B00F0CE800023CDE92933CDE91833EF
:10383000CDE91A331193179308932BAB289398462D
:103840003B78CDF82CB000210022CDE91212002BDC
:1038500000F071813C4604E014F8013F002B00F0B9
:10386000C780252BF8D1E51B40F0C5802378002BBD
:1038700000F06181002309938DF883300693661C64
:103880004FF0FF33647807932B254FF0200A013661
:10389000A4F120035A2B00F2CC80DFE813F06B0276
:1038A000CA00CA006502CA00CA00CA006A00CA008B
:1038B000CA0003021402CA000E024B02CA004502EB
:1038C0005B005B005B005B005B005B005B005B0020
:1038D0005B00CA00CA00CA00CA00CA00CA00CA0007
:1038E0005501CA00A6018302550155015501CA00C0
:1038F000CA00CA00CA007D02CA00CA00DB02CA00B0
:10390000CA00CA00B401CA001802CA00CA000408EA
:10391000CA00CA00CA00CA00CA00CA00CA00CA0057
:103920005501CA00A601DA01550155015501F00201
:10393000DA01A001CA007402CA000D030108F902ED
:10394000A001CA00B4018200FD07CA00CA00D50761
:10395000CA008200A4F13003002216F8014B02EBEA
:10396000820203EB4202A4F13003092BF5D909923C
:103970008EE7484603F038F843681A931846FCF778
:103980007FFE034648461C461B9303F02DF88268D1
:10399000189234B1189B23B1189B1B78002B41F06F
:1039A000BA80347873E75946484601F003FD002891
:1039B00041F04983BBF80C2002F01A030A2B7FF474
:1039C00032AFBBF90E30002BFFF62DAFDBF86430C1
:1039D000DB0702D4960541F16C8123463A465946ED
:1039E000484601F0A5FC0890089855B0BDE8F08F56
:1039F000E51B00F0A080DDE9293201332A44072BC2
:103A0000CDE92932C8F80070C8F8045006DC08F186
:103A10000808089A23782A44089228E70B9928AACC
:103A2000484603F061FF002841F025840DF1AC0801
:103A3000EFE70E96002C7ED000231A464FF0010AC5
:103A40008DF8EC408DF883300C9207920F9214920F
:103A50001092CDF828A03BAF069B069913F0020305
:103A600018BF0AF1020A11F0840B05D10999A1EBE4
:103A70000A06002E00F3DA832A9D72B1299A0132D8
:103A800001350DF183000121072ACDE92925C8E977
:103A9000000100F30C8408F108086BB1299B013385
:103AA000023521A90222072BCDE92935C8E90012E8
:103AB00000F30C8408F10808BBF1800F00F08F823E
:103AC000079B0A9A9E1A002E00F3CE82069BDE0503
:103AD00000F12982299B0A9AC8F800700133154425
:103AE000072B2A95C8F80420299300F3338308F1A3
:103AF0000808069B5E0705D5099BA3EB0A04002C6A
:103B000000F3F183DDE908325245ACBF9B18534402
:103B10000893002D40F0E182002329930C9B1BB1F8
:103B20000C99484602F038FE0DF1AC080E9F3B7828
:103B3000002B7FF48FAE2A9BDDF82CB0002B40F0D9
:103B4000E08700232993D7E20D9B0E96073323F0DD
:103B500007031946F1E80223CDE91223DDE912AB90
:103B60002BF000450D91B84B504629464FF0FF32DF
:103B7000FDF74AFA002840F04E85B34B50462946DF
:103B80004FF0FF32FDF722FA002840F04485002272
:103B9000002350465946FDF70FFA002841F0848172
:103BA0009DF88320A94FAA4B069800214FF0030AE5
:103BB00020F080000C910690472CC8BF1F46CDF81E
:103BC00028A007910F9114911091002A3FF444AF5F
:103BD0000AF1010A40E7484602F042FDFEE5069B75
:103BE000347843F02003069351E60D9B0E9653F86C
:103BF000042B8DF8EC2000210A464FF0010A0D93AA
:103C00008DF8831020E70D9D0E9655F8047B002655
:103C10008DF88360002F00F07286079A13460133F7
:103C200000F01B8731463846FCF72AFC0C90002830
:103C300001F0C3810C9B0796DA1B0A92334622EAF5
:103C4000E27A0D959DF883200C930F9314931093B3
:103C5000BBE7069B0E969D0640F1AD800D9B07339A
:103C600023F007031946F1E802230D9192469B4683
:103C7000002A73F10003C0F2AF80079B013300F00C
:103C80009D85069B23F080055AEA0B0340F0BD8218
:103C9000079B002B40F0C0820695002307930A93F0
:103CA00054AFC3E00D9B53F8042B0992002A80F215
:103CB0005D84099A0D9352420992069B347843F031
:103CC00004030693E3E534788DF88350DFE5069B23
:103CD0000E9643F01005AF0640F11A840D9B073392
:103CE00023F00703F3E802AB0D93012300228DF8C4
:103CF0008320079A114601317DD025F0800106917D
:103D00005AEA0B0140F07D82002A40F07486002BB5
:103D1000C3D115F001030A9300F05B8430238DF8C2
:103D20004F310DF24F1781E0069B347843F080034A
:103D30000693ACE5324612F8014B2A2C01F0D382EF
:103D4000A4F13003092B164698BF002201F27381BB
:103D500016F8014B02EB820203EB4202A4F130039E
:103D6000092BF5D9079293E5069B347843F00103BC
:103D700006938CE59DF88330002B7FF412AE3478E7
:103D80008DF883A083E53478069B6C2C00F0B08519
:103D900043F0100306937AE5069B347843F008035A
:103DA000069374E5069B0E9643F010030693069B5C
:103DB0009D063FF553AF069BD80640F11C840D9B32
:103DC00053F8042B0D934FEAE27B5B46002A73F114
:103DD00000039246BFF651AF079A069DDAF1000A3A
:103DE00011464FF02D036BEB4B0B01318DF88330F7
:103DF0004FF0010381D1012B00F00782022B54AF59
:103E000072D117984FEA1A130AF00F0143EA0B73A5
:103E10004FEA1B129A469346435C07F8013D5AEA63
:103E20000B03EFD154ABDB1B06950A9300230799D4
:103E30000C930F93149310930A9B9DF883208B424D
:103E4000B8BF0B469A46C0E6FFFFEF7FB08600087A
:103E5000B4860008069B0E9643F010030693069B5B
:103E6000990640F165830D9B073323F00703F3E8C0
:103E700002AB0D93069B23F48065002336E734786C
:103E8000069B682C00F02D8543F040030693FEE46A
:103E90000D9B0E9647F6300153F8042BADF88410B5
:103EA00006990D93B14B179341F0020592464FF0DE
:103EB000000B0223782419E7069B0E969E0600F15C
:103EC0007184069BDD0600F19B85069B5C0600F174
:103ED0003886069B980540F193850D9B089953F809
:103EE000042B0D93117021E64FEADA0242EA4B727D
:103EF0004FEADB010AF007038B46924630335AEA59
:103F00000B013A4607F8013DEED1E9078AD5302B7F
:103F100088D03023023A07F8013C54AB9B1A06952F
:103F20000A93174682E7652C40F32681DDE91201EA
:103F300000220023FDF736F8002800F00E82299BAE
:103F40008B4AC8F80020013301350122072BCDE947
:103F50002935C8F8042000F3308508F10808229BB1
:103F6000119A934280F2F482299B169AC8F8002095
:103F7000159AC8F8042001331544072B2A95299374
:103F800000F3A28408F10808119B5C1E002C7FF747
:103F9000B0AD102C299BDFF8DCB140F31F855F46E4
:103FA0001026DDF82CB005E008F10808103C102CB4
:103FB00040F3138501331035072BCDE92935C8E9C6
:103FC0000076F1DD28AA5946484603F08DFC00280A
:103FD00040F08D80DDE929350DF1AC08E6E7099B5D
:103FE000A3EB0A06002E7FF76BAD102E299ADFF89F
:103FF00084B126DD2946102325465C46DDF82CB029
:1040000004E0103E102E08F1080817DD01321031CF
:10401000072ACDE92921C8E90043F2DD28AA59463B
:10402000484603F061FC002861D1103E102EDDE906
:1040300029210DF1AC084FF01003E7DCA3462C4614
:104040000D4601323544072ACDE92925C8F800B0CC
:10405000C8F8046000F32B84079B0A9A9E1A002E6E
:1040600008F108087FF732AD102E299ADFF804B165
:1040700025DD2946102325465C46DDF82CB004E0FA
:10408000103E102E08F1080816DD01321031072A03
:10409000CDE92921C8E90043F2DD28AA594648465E
:1040A00003F022FC18BB103E102EDDE929210DF192
:1040B000AC084FF01003E8DCA3462C460D46013255
:1040C0003544072ACDE92925C8F800B0C8F80460AE
:1040D00000F3118208F10808F8E40B9928AA484671
:1040E00003F002FC00283FF417ADDDF82CB00C996A
:1040F00011B1484602F050FBDBF8643013F0010FB9
:10410000BBF80C3002D19C0540F12E84580600F11A
:10411000A687089855B0BDE8F08F299B1699C8F876
:1041200000101599C8F8041001330D44072B2A9587
:10413000299300F3AF8508F10808002AC0F29E8792
:10414000119A01331544072BCDE92935C8E90072CE
:104150007FF7CDAC0B9928AA484603F0C5FB002891
:10416000C3D12A9D0DF1AC08C3E400BFC08600088E
:10417000F086000804870008119B299C012B40F35E
:104180007281013401350123072CCDE92945C8F896
:104190000070C8F8043000F3CD8308F10808159BBF
:1041A000169A01341D44072CCDE92945C8E900239E
:1041B00000F3CD8308F108080023DDE91201002295
:1041C000FCF7F0FE119B002840F06A81013B0134AE
:1041D00001371D44072CCDE92945C8F80070C8F8FF
:1041E000043000F3508108F10808199A013415448D
:1041F00024AB072CCDE92945C8E900327FF777AC1D
:10420000A8E7012B069D7FF4F9ADBBF1000F08BFB5
:10421000BAF10A0F80F0DA820AF1300A01238DF830
:104220004FA106950A930DF24F17FFE5102EDDE919
:1042300029212ADD1C933B4640464F46A0461025C7
:104240000B9C994604E0103E102E00F1080016DD8C
:104250000132C84B1031072ACDE92921C0E90035C8
:10426000F1DD28AA2146384603F03EFB002840F045
:104270009483103E102EDDE929212BA8E8DC44466A
:104280001C9B80464846B94607460132B948C8F8E3
:1042900000007518072ACDE92925C8F8046000F345
:1042A0006B839DF8832008F10808FFF7E6BB0B99A4
:1042B0001C9328AA484603F017FB00287FF415AF8B
:1042C0002A9D1C9B0DF1AC08FFF7E7BB0B9928AAB0
:1042D000484603F009FB00287FF407AF2A9D0DF143
:1042E000AC08FFF7E9BB102C299B1FDD0B9F1026A4
:1042F00004E0103C102C08F1080817DD01339D4A3A
:104300001035072BCDE92935C8E90026F1DD28AAAB
:104310003946484603F0E8FA002840F05B83103C39
:10432000102CDDE929350DF1AC08E7DC0133914AA9
:10433000C8F800202544072BCDE92935C8F80440EA
:104340007FF7E0AB0B9928AA484603F0CDFA002886
:104350007FF4CBAE2A9DFFF7D5BB229A002A40F30B
:104360000D81DDE910329342A8BF1346002B1C4695
:104370000DDD299BC8F8007001332544072B2A95D1
:10438000C8F80440299300F3B48508F10808109B8D
:10439000002CA8BF1B1B002B1C4600F33983109B6D
:1043A0003B449B46069B590500F1E284229B119AEF
:1043B000934203DB069AD20740F1B483299A1699F7
:1043C000C8F800101599C8F8041001320D44072AE6
:1043D0002A95299200F3C38508F10808119ABC18A0
:1043E000A4EB0B04D31A9C42A8BF1C46002C0DDD85
:1043F000299AC8F800B001322544072A2A95C8F83E
:104400000440299200F3078608F10808002CACBF8D
:104410001C1B1C46002C7FF76CAB102C299BDFF873
:1044200058B140F3DB825F461026DDF82CB005E082
:1044300008F10808103C102C40F3CF8201331035EE
:10444000072BCDE92935C8E90076F1DD28AA5946C0
:10445000484603F049FA00287FF449AEDDE92935E2
:104460000DF1AC08E6E7069BDB073FF58AAE0134A9
:1044700001350123072CCDE92945C8F80070C8F89B
:1044800004307FF7B0AE0B9928AA484603F02CFA07
:1044900000287FF42AAEDDE929450DF1AC08A4E639
:1044A0005E1E002E7FF7A1AE102EDFF8CCB040F3D9
:1044B000E082CDF81CA01027CA46DDF82C9005E05C
:1044C00008F10808103E102E40F3D0820134103558
:1044D000072CCDE92945C8E900B7F1DD28AA4946EE
:1044E000504603F001FA002840F0A985DDE929458E
:1044F0000DF1AC08E6E70B9928AA484603F0F4F959
:1045000000287FF4F2AD2A9D0DF1AC08FFF7DEBA6A
:104510000D9AEE0652F8041B0D924FF001035DD484
:10452000680658D51FFA81FA4FF0000BFFF7DEBB83
:10453000069BDA0657D4069B5B0640F1B2820D9BC0
:1045400053F8042B0D931FFA82FA4FF0000B91E4FD
:10455000069BD8077FF5CDAA06E5DBF8580002F0E8
:104560004BFABBF90C309AB2FFF743B934780D938C
:10457000FFF78DB9F486000804870008299BC3491A
:10458000C8F80010013301350121072BCDE9293589
:10459000C8F8041000F3968408F10808002A7FF494
:1045A000BCAD069B119A03F0010313433FF4A1AA8B
:1045B000299B169AC8F80020159AC8F804200133E0
:1045C0001544072B2A95299300F3648308F1080802
:1045D000B6E554AF2AE4AA0500F1AD828A464FF051
:1045E000000BFFF783BB0D9B53F8042B0D939246F2
:1045F0004FF0000B3EE4069B590640F161820D9B93
:1046000053F8042B0D930FFA82FA4FEAEA7B5246D5
:104610005B46FFF72DBBDDE912010B460246FCF7B6
:10462000F3FC0146002840F01686612C00F08A85D4
:10463000412C00F09582079B24F020065A1C0A9614
:1046400000F0AA85472E00F08285DDE91212069B54
:10465000B2F1000A43F4807310934FF00003C0F2EC
:10466000CA851C930C938B46462E5A46534600F03F
:104670008484452E40F05784079926A84D1C23A911
:104680000490039122A802210195029000914846CE
:1046900000F096FF07460544069B0F93109B069378
:1046A0005846514600220023FCF77CFC002800F00D
:1046B00041832B46DB1B11930A9B472B00F00C8395
:1046C0000A9B462B00F08684229B1093109B0A9A2B
:1046D000013B412A229300F08885E2B20021002BA1
:1046E000B8BF109B8DF89020BABFC3F101032D22F3
:1046F0002B22092B8DF8912040F368850DF19F0E38
:10470000DFF890C175468CFB0321DA17C2EBA102DA
:1047100002EB8201A3EB41011E463031632E284695
:1047200005F8011C134605F1FF35ECDC3033DAB235
:10473000831E9E45294605F8012C40F2DF850DF1C8
:10474000920301E011F8012B03F8012B8E45F9D1FA
:104750000DF1A1030DF192021B1A134424AA9B1A16
:104760001993119B199A012B1A440A9240F39585CB
:104770000A9B159A13440A930F9B23F48066002327
:104780000F93149310930A9B46F48072069223EAC7
:10479000E37A1C9B002B40F0C6829DF88320079390
:1047A000FFF713BA0D9B53F8041B0D93089BDD17FD
:1047B0001A462B46C1E90023FFF7B8B9BBF1000F39
:1047C00008BFBAF10A0F069DFFF426AD05F4806616
:1047D00000230694CDF828903446C14654AFA8462D
:1047E0001E46189D09E0FBF7CBFCBBF1000F08BF8C
:1047F000BAF10A0F1FD382468B460A220023504685
:104800005946FBF7BDFC94460CF1300C07F801CC7F
:10481000504659460A2200230136013F002CE2D0BF
:1048200095F800C06645DED1FF2EDCD09B4508BF61
:10483000924580F08B821895069C11964546C84695
:10484000DDF82890FFF7EEBA114B0E961793069BF2
:104850009F0664D50D9B073323F00703F3E802ABF3
:104860000D93069AD0070AD55AEA0B0307D03023D6
:1048700042F002028DF8854006928DF88430069B46
:1048800023F480650223FFF731BA00BFF0860008E9
:10489000C086000867666666069D0E96FFF71BBA1F
:1048A0000E96FFF7DCBAAB4B0E961793CFE70B993A
:1048B00028AA484603F018F800287FF416AC2A9D71
:1048C0000DF1AC08FFF7FCB80B9928AA484603F095
:1048D0000BF800287FF409AC2A9D0DF1AC08FFF716
:1048E00053BB43F40073747806930136FEF7CFBFD1
:1048F00043F02003747806930136FEF7C8BF079B88
:104900000F97062B28BF06230797149710970C972D
:104910003A469A46904F0D950A93FFF756B9069B73
:10492000DE063ED50D9B53F8042B0D9392464FF0B7
:10493000000B96E70B9928AA484602F0D5FF0028FD
:104940007FF4D3ABDDE929450DF1AC0827E40B99E1
:1049500028AA484602F0C8FF00287FF4C6ABDDE96C
:1049600029450DF1AC0827E4DBF8580002F046F8C1
:10497000BBF80C30FFF7CABB0B991C9328AA48461A
:1049800002F0B2FF00287FF4B0AB9DF883202A9D8F
:104990001C9B0DF1AC08FFF770B8B946A346FFF7B2
:1049A000A6BB069B5D066ED50D9B53F8042B0D939D
:1049B0001FFA82FA4FF0000B53E70B9928AA4846DA
:1049C00002F092FF00287FF490AB2A9D0DF1AC0815
:1049D000FFF7C5BABB46FFF78ABBBB460133254488
:1049E000072BC8F800B0CDE92935C8F804407FF797
:1049F0007EA8FFF7AFBB012B069D7FF4FFA90BE458
:104A00000D9B089953F8042B11600D93FFF78EB896
:104A1000102C299BDFF844B165DD2A4610265D463F
:104A2000DDF82CB004E008F10808103C102C58DD2B
:104A300001331032072BCDE92932C8E90056F2DDE7
:104A400028AA5946484602F04FFF00287FF44FAB92
:104A5000DDE929320DF1AC08E7E73846FBF710FE37
:104A60003346079602460A90FFF7E9B8D146DDF8CB
:104A70001CA001343544072CCDE92945C8E900B60E
:104A80007FF7B1ABFFE4069B13F4007F0D9B53F857
:104A9000042B0D9314BF5FFA82FA92464FF0000B7D
:104AA000DFE6069B13F4007F0D9B53F8042B0D9358
:104AB00014BF5FFA82FA92464FF0000BFFF7DAB9A3
:104AC000069B13F4007F0D9B53F8042B3FF47AA947
:104AD0004FFA82FA4FEAEA7B0D9352465B46FFF7A4
:104AE000C7B8AB46154601332544072BCDE9293518
:104AF000C8F800B0C8F8044000F3E18008F10808E5
:104B00004DE4484628AA594602F0EEFE00283FF43C
:104B100018A8FFF7F1BA069B347843F48063069334
:104B2000FEF7B5BE119ABC18A4EB0B04D31A9C4235
:104B3000A8BF1C466AE45FFA81FA4FF0000BFFF74A
:104B4000D5B80D9B089953F8042B0D931180FEF7EF
:104B5000EDBF00BFD4860008E8860008048700087F
:104B600030238DF8843058238DF88530069B43F030
:104B70000205079B632B00F3BF8200230C933BAF1E
:104B8000DDE91212069B069543F4817324F020069A
:104B9000B2F1000A10930A96C0F2A38100238B465B
:104BA0001C93612C00F0FC82412C7FF45DAD5846D3
:104BB000514622AA02F098FD00224FF07F53FBF7E6
:104BC00089FF0022002382468B46FCF7EBF908B1EF
:104BD00001232293B74B0F93079B1D94CDE91E979A
:104BE0003E465D1E0F9FCDF8508003E0FCF7DAF9DA
:104BF000013D08BBB04B002250465946FBF76AFF07
:104C000089468046FCF716FA0446FBF7F9FE024691
:104C10000B4640464946FBF7A5FD17F804C0B5F121
:104C2000FF3FB046824606F801CB8B464FF00002AC
:104C30004FF00003A946D9D1A04BCDF84480002203
:104C400050465946DDF850801F9F14944D46DDE9CB
:104C50001D49FCF7CFF9002840F05882974B504689
:104C600059460022FCF79EF918B1149BDB0700F1AE
:104C70004D82002D2B4606DB01333344302206F8EB
:104C8000012BB342FBD1069B0F93F31B1193109B97
:104C9000069311E50B9928AA484602F025FE002844
:104CA0007FF423AADDE92935229A0DF1AC08FFF73C
:104CB00044BADBF8580001F0A1FEFEF78EBE0B9956
:104CC00028AA484602F010FE00287FF40EAA2A9D6A
:104CD0000DF1AC08FFF763BB229B1093D81C02DBDD
:104CE000079A934204DD023C24F020030A93EDE48A
:104CF000DDE910318B42C0F284810F9AD20740F176
:104D0000B782159A13440A930F9B5B0503D5109B3A
:104D1000002B00F372820A9B672423EAE37A0023C4
:104D20000F93149335E52D2200238DF883200793EC
:104D3000FEF74EBF269BAB42BFF4BCAC30215A1CE1
:104D400026921970269B9D42F9D8B3E41B9B1A99B1
:104D5000FF1A1A46384602F057FD6B7803B1013549
:104D60000A220023504659460026FBF709FA42E57D
:104D7000119BCDF828A04246DDF850801097FB1813
:104D800007935E46DDF86CA0DDF82CB0189F0F9BF2
:104D90002946B8F1000F2ED0002B6AD1013F08F14F
:104DA000FF38299B1A98106001335144072B2A9130
:104DB000C2F804A0299360DC083207983B78841B72
:104DC0009C42A8BF1C46002C0ADD299B16600133BB
:104DD0002144072B2A915460299359DC3B780832EF
:104DE000002CACBF1C1B1C46002C14DC1E440F9B6B
:104DF000B8F1000FD0D1002B3BD11897DDE910732B
:104E0000FB189E42B346DDF828A090460D4628BF09
:104E10009B46FFF7CBBA102C29981DDD102504E026
:104E2000103C102C02F1080216DD0130244B103129
:104E30000728CDE92901C2E90035F1DD28AA594644
:104E4000484602F051FD00287FF451A9103C102C77
:104E5000DDE929012BAAE8DC0130194B136021445C
:104E60000728CDE92901546050DC3B7808321E4404
:104E7000BDE70F9B013B0F9393E728AA594648468D
:104E800002F032FD00287FF432A92A992BAA94E778
:104E900028AA5946484602F027FD00287FF427A992
:104EA0003B782A992BAA9BE72D228DF88320FEF7C9
:104EB00079BE00BFD4860008000030400000E03F0B
:104EC000048700080B9928AA484602F00DFD002827
:104ED0007FF40BA9229A2A9D0DF1AC08FFF75EBB67
:104EE0000C90DDE9122303F1004A2D2393461C9315
:104EF00057E60B9928AA484602F0F6FC00287FF4F2
:104F0000F4A82A9D0DF1AC08FFF741BA28AA59462A
:104F1000484602F0E9FC00287FF4E9A83B782A998A
:104F20002BAA1E4463E726A823A9079D049003919A
:104F300022A80221029001950091484600F040FB12
:104F4000472E074627D1069BDA0700F18D80109A7D
:104F5000069247220F930A92269BFFF7ABBB0B9951
:104F600028AA484602F0C0FC00287FF4BEA8229B75
:104F70002A9D0DF1AC08FFF731BA26A823A9079D99
:104F80000490039122A803210290019500914846C4
:104F900000F016FB0746079B462E07EB03057FF440
:104FA0007BAB3B78302B00F06A81229B069A0F92F4
:104FB0001D44109B0693FFF773BBDDF81CA09DF802
:104FC0008320CDF828A007900D950F901490109095
:104FD000FEF7FBBD229A0F9B1092002A40F36E81D0
:104FE000079903F001030B4340F02E81109B0A93B5
:104FF00066240F9B590500F101810A9B23EAE37A9D
:105000008DE6119B159A9A18109B0A92002B40F37B
:105010004A816724EDE70B9928AA484602F064FC10
:1050200000287FF462A8229B119A2A9DD31A0DF1C1
:10503000AC08FFF7EBB900230793FEF729BCCB467A
:10504000D146FFF754B8DBF86430D90707D4BBF872
:105050000C309A0503D4DBF8580001F0CFFC4FF078
:10506000FF330893FFF755B8069B0F93079BFD1876
:10507000109B069347230A93FFF712BB544210324A
:10508000DFF8A8B221DA2A4610265D46DDF82CB0FA
:1050900004E008F10808103C102C14DD0133103234
:1050A000072BCDE92932C8E90056F2DD28AA594676
:1050B000484602F019FC00287FF419A8DDE92932DE
:1050C0000DF1AC08E7E7AB46154601332544072B45
:1050D000CDE92935C8E900B47FF778AA0B9928AA49
:1050E000484602F001FC00287EF4FFAFDDE92935D7
:1050F0000DF1AC08FFF724B8591C484601F0FAFC42
:105100000746002800F0FE800C9039E5119B26939D
:105110000F9B16F8012CD97B8A42334609D13020E7
:1051200003F8010C269B5A1E269213F8012C91427B
:10513000F6D0392A0BBF0F9A0132927AD2B203F815
:10514000012CA0E530238DF8843078230CE5002B6A
:1051500008BF01230793069B43F480731093139BAE
:10516000B3F1000AFFF6BCAE079E019626AD23A858
:10517000CDE90305DDE9125622AA0223029200932B
:105180002A46334648468B460C9100F019FACDF872
:1051900070B00746AB46D6E606230793FFF755BA2D
:1051A0005846514622AA02F09FFA00224FF07F5340
:1051B000FBF790FC0022002382468B46FBF7F2FEB1
:1051C00008B101232293564B0F9305E5002972D1B4
:1051D00030228DF892200DF19302303302F8013B1A
:1051E00024ABD31A1993FFF7BCBA04F10F02D2B261
:1051F0000121FFF774BA0C9373E6672418990B78B2
:10520000FF2B00F089800025109A284603E001302A
:105210000131FF2B08D0934206DAD21A4B78002BCB
:10522000F5D10B780135F4E71891109214900F9591
:105230000F9A149B0A9913441B9A02FB03130A93B7
:1052400023EAE37AFFF7A5BA159B02EB030A514460
:105250000A916624CDE6139B324F002BB4BF2D225A
:105260009DF88320304BB8BF8DF88320FEF79CBC9F
:10527000109B0A9348E5DDF82CB0FEF73DBF584679
:10528000514600220023FBF78DFE00287FF48DAEEF
:10529000079BC3F10103229388E60F9BD9077FF593
:1052A0006BAAFFF765BAC3F101031A440A9222EA16
:1052B000E27A672433E50DF192028EE703F00106EE
:1052C000079B56EA030205D14FF0010ACDF828A04A
:1052D000662424E5159A02F1010A53440A9323EA4D
:1052E000E37A66241BE50D9B747853F8041B0D9339
:1052F000164641EAE1720792FEF7C9BA02231993F2
:10530000FFF72FBADDF82CB0BBF80C3043F04003A8
:10531000ABF80C30FEF7F0BE00230F93149387E731
:10532000C0860008B8860008BC860008048700080C
:10533000F0B50C46ADF26C4D8989B4F80EC0ADF8ED
:105340000EC01F46636E19931546636AE2690792A1
:1053500021F002011AAA0646ADF80C1009930021AB
:105360004FF4806316A8069100920492029305936D
:1053700001F03EFB2A463B4669463046FEF716FAE8
:10538000051E07DB3046694601F00EF9002818BFFC
:105390004FF0FF35BDF80C305B0603D5A38943F011
:1053A0004003A381169801F025FB28460DF26C4DB1
:1053B000F0BD00BF38B5324B1B6805460C4613B133
:1053C0009A6B002A3CD0B4F90C3018079AB20CD56D
:1053D0002169A9B112F0010022D060690025404284
:1053E000A061A56011B3002038BDD10640D5520799
:1053F0002AD4216943F00803A3819AB20029E9D194
:1054000002F42070B0F5007FE4D02846214601F078
:1054100025FBB4F90C3021699AB212F00100DCD1FD
:10542000950758BF6069A0600029DCD1120658BFFB
:105430000846D9D543F04003A3814FF0FF3038BD73
:10544000184601F00DF9BEE7216B51B104F140029D
:10545000914204D0284601F09FF9B4F90C300022A3
:105460002263216921600022626023F02403C1E7E6
:1054700043F0400309222A604FF0FF30A38138BD7A
:1054800014000020024B13B1024800F005B8704729
:1054900000000000CD660008002301461A461846A9
:1054A00002F042BA2DE9F04F03690E69B34283B0AE
:1054B000C0F28280013E01F1140700F1140A57F88E
:1054C00026305AF8262001338346B00000909A42D5
:1054D0000AEB860007EB86090190B2FBF3F836D39E
:1054E00000252A46BC4650465CF8044B03681FFA68
:1054F00084FE08FB0E554FEA154E240C08FB04E40D
:10550000ADB2551BA2B2C2EB134215FA83F302EB04
:1055100023429BB243EA0243E14540F8043B4FEA91
:1055200014454FEA2242DFD2009B5AF8033073B988
:10553000019B043B9A4504D307E09A4506F1FF36E8
:1055400003D253F80429002AF7D0CBF8106058464C
:1055500001F0BCFF00282BDB08F1010850460023B6
:1055600057F8041B04688AB29A1A0B0C12FA84F2D8
:10557000C3EB144303EB224392B242EA0342B94520
:1055800040F8042B4FEA2343EAD25AF826200AEBCC
:1055900086036AB9043B9A4504D307E09A4506F1AD
:1055A000FF3603D253F80429002AF7D0CBF8106055
:1055B000404603B0BDE8F08F002003B0BDE8F08F97
:1055C0002DE9F04F016C9BB016461F46CDE90267EE
:1055D000279D044641B1426C4A60012393408B6091
:1055E00001F074FD00232364B7F10009B4BF012367
:1055F00000232B60764BBCBF29F00049CDF80C90FE
:1056000033EA090300F0AA80DDE90223CDE908238B
:105610001046194600220023FBF7C4FC824670B1F5
:10562000269A01231360289B002B00F0CB82694847
:105630001860431E049304981BB0BDE8F08F18AAAD
:1056400019ABCDE900322046DDE9082301F0F8FF6F
:105650005FEA1955804640F09780DDE918B55D4452
:1056600005F23240202840F39D83C0F1400305F24B
:10567000124009FA03F926FA00F049EA0000FBF7A4
:10568000AFF90123013DA1F1F8710D93524B0022B6
:10569000FBF768F848A3D3E90023FBF71BFA48A3FC
:1056A000D3E90023FBF760F8064628460F46FBF7D0
:1056B000A7F945A3D3E90023FBF70CFA02460B46F2
:1056C00030463946FBF750F806460F46FBF7B2FC6A
:1056D00000228246002330463946FBF76DFC002845
:1056E00040F06382BAF1160F00F251823B4B03EB9C
:1056F000CA03D3E90023DDE90801FBF75DFC0028BC
:1057000072D00023ABEB05050C936B1E0AF1FF3A38
:10571000059300F1448200230793BAF1000F6BDA7E
:10572000079BCDF818A0A3EB0A030793249B092B32
:10573000CAF1000B4FF0000A67D8052B40F3308305
:10574000043B24930025249B023B032B00F2788624
:10575000DFE813F04C04490440042304269A42F283
:105760000F73C9F31309136059EA06031CD1289B70
:10577000002B00F05C861A4B04930833289A049897
:1057800013601BB0BDE8F08FDDE90812C2F313030C
:10579000084643F07F51DDF860B0CDF834A0A5F2A3
:1057A000FF3541F4401171E7289B002B40F0E48362
:1057B0000C4B04933FE700BF61436F63A787D23F61
:1057C000B3C8608B288AC63FFB799F501344D33FF0
:1057D0000000F07FF18600080000F83F50870008C5
:1057E0001887000814870008ABEB05056B1E0593AE
:1057F00000F1A4840C900790059B5344CDE9053A31
:10580000249B092B4FF0000B97D94FF0FF36012551
:10581000CDE90A6500232493259300216164129643
:10582000204601F02DFC0E2E0490206400F2F6803C
:10583000002D00F0F3800699002940F35384BB4B00
:1058400001F00F0203EBC203D3E90023CDE90E23DD
:10585000CA054FEA211540F1EA83B54BDDE908019D
:10586000D3E90823FBF760FACDE9100105F00F0535
:105870004FF0030985B1DDE90E01AD4EEB0705D50B
:10588000D6E90023FBF726F909F101096D1006F1AD
:105890000806F3D1CDE90E01DDE90E23DDE91001A3
:1058A000FBF742FACDE90E010C9B53B1DDE90E671F
:1058B000A04B002230463946FBF77EFB002840F023
:1058C0003E854846FBF79CF8DDE90E23FBF702F91D
:1058D000994B0022FAF748FFA1F15073CDE910016E
:1058E00011930A9B002B00F0DF83069B14930A9B05
:1058F00013930B9B002B00F0A984139A8B4B8F49B9
:1059000003EBC20353E902230020FBF70DFADDE9A4
:105910001023FAF727FF0F460646DDE90E01CDE911
:105920001067FBF787FB0746FBF76AF802460B4652
:10593000DDE90E01FAF716FF049D303702460B46EB
:1059400005F8017BDDE91001CDE90E23FBF752FBE1
:10595000002840F037854FF00009CDE916BACDF8A0
:105960005480CA46AB46DDE90E89139F0E94DDE9EB
:10597000104524E0BA454CDAFBF7ACF8704B002236
:1059800004460D4640464946FBF7A4F88946804642
:10599000FBF750FB0646FBF733F802460B46404642
:1059A0004946FAF7DFFE30360BF8016B22462B46EC
:1059B00080468946FBF700FB002840F0FF84424602
:1059C0004B465C490020FAF7CDFE22462B46FBF7FA
:1059D000F3FA06465A4B0AF1010A002220462946EC
:1059E000002EC7D0149BDDF854800E9C049A0693B9
:1059F0005D4602E0954200F0CB84AA4615F8013DD1
:105A0000392BF7D00133DBB22B70069B01330693A1
:105A1000A8E1DDE916BADDF854800E9C199B002B35
:105A2000C0F29280069A0E2A00F38E803F4B03EB61
:105A3000C203D3E900AB259B002B1ADA0A9B002B8B
:105A400017DC40F0B6843F4B002250465946FBF726
:105A500041F802460B46DDE90801FBF7B7FADDF82D
:105A600028904D46002800F05082259B049FDE437D
:105A700053E2DDE9085652465B4628463146FBF7BD
:105A800053F9FBF7D7FA07468146FAF7B9FF5246B2
:105A90005B46FBF71FF80B46024631462846FAF7ED
:105AA00061FE3B460A9F049D3033012F05F8013B00
:105AB00000F07E834FF00109CDF808802E46059452
:105AC00017E0FBF731F9FBF7B5FA8046FAF798FFD4
:105AD00052465B46FAF7FEFF0B4602462946204631
